{
	"contracts/Struct.sol": {
		"ContractMonster": {
			"abi": [
				{
					"inputs": [
						{
							"internalType": "string",
							"name": "_name",
							"type": "string"
						}
					],
					"name": "createMonster",
					"outputs": [],
					"stateMutability": "nonpayable",
					"type": "function"
				},
				{
					"inputs": [
						{
							"internalType": "uint256",
							"name": "_id",
							"type": "uint256"
						}
					],
					"name": "getMonster",
					"outputs": [
						{
							"internalType": "string",
							"name": "",
							"type": "string"
						},
						{
							"internalType": "uint256",
							"name": "",
							"type": "uint256"
						}
					],
					"stateMutability": "view",
					"type": "function"
				},
				{
					"inputs": [
						{
							"internalType": "uint256",
							"name": "_id",
							"type": "uint256"
						},
						{
							"internalType": "uint256",
							"name": "_newPower",
							"type": "uint256"
						}
					],
					"name": "updatePower",
					"outputs": [],
					"stateMutability": "nonpayable",
					"type": "function"
				}
			],
			"devdoc": {
				"kind": "dev",
				"methods": {},
				"version": 1
			},
			"evm": {
				"assembly": "    /* \"contracts/Struct.sol\":57:1112  contract ContractMonster {... */\n  mstore(0x40, 0x80)\n  callvalue\n  dup1\n  iszero\n  tag_1\n  jumpi\n  0x00\n  dup1\n  revert\ntag_1:\n  pop\n  dataSize(sub_0)\n  dup1\n  dataOffset(sub_0)\n  0x00\n  codecopy\n  0x00\n  return\nstop\n\nsub_0: assembly {\n        /* \"contracts/Struct.sol\":57:1112  contract ContractMonster {... */\n      mstore(0x40, 0x80)\n      callvalue\n      dup1\n      iszero\n      tag_1\n      jumpi\n      0x00\n      dup1\n      revert\n    tag_1:\n      pop\n      jumpi(tag_2, lt(calldatasize, 0x04))\n      shr(0xe0, calldataload(0x00))\n      dup1\n      0x62fb6fe1\n      eq\n      tag_3\n      jumpi\n      dup1\n      0x9b247d4b\n      eq\n      tag_4\n      jumpi\n      dup1\n      0xe338ef54\n      eq\n      tag_5\n      jumpi\n    tag_2:\n      0x00\n      dup1\n      revert\n        /* \"contracts/Struct.sol\":752:924  function getMonster(uint _id) external view returns(string memory, uint){... */\n    tag_3:\n      tag_6\n      0x04\n      dup1\n      calldatasize\n      sub\n      dup2\n      add\n      swap1\n      tag_7\n      swap2\n      swap1\n      tag_8\n      jump\t// in\n    tag_7:\n      tag_9\n      jump\t// in\n    tag_6:\n      mload(0x40)\n      tag_10\n      swap3\n      swap2\n      swap1\n      tag_11\n      jump\t// in\n    tag_10:\n      mload(0x40)\n      dup1\n      swap2\n      sub\n      swap1\n      return\n        /* \"contracts/Struct.sol\":291:746  function createMonster(string memory _name) public{... */\n    tag_4:\n      tag_12\n      0x04\n      dup1\n      calldatasize\n      sub\n      dup2\n      add\n      swap1\n      tag_13\n      swap2\n      swap1\n      tag_14\n      jump\t// in\n    tag_13:\n      tag_15\n      jump\t// in\n    tag_12:\n      stop\n        /* \"contracts/Struct.sol\":930:1110  function updatePower(uint _id, uint _newPower) public {... */\n    tag_5:\n      tag_16\n      0x04\n      dup1\n      calldatasize\n      sub\n      dup2\n      add\n      swap1\n      tag_17\n      swap2\n      swap1\n      tag_18\n      jump\t// in\n    tag_17:\n      tag_19\n      jump\t// in\n    tag_16:\n      stop\n        /* \"contracts/Struct.sol\":752:924  function getMonster(uint _id) external view returns(string memory, uint){... */\n    tag_9:\n        /* \"contracts/Struct.sol\":804:817  string memory */\n      0x60\n        /* \"contracts/Struct.sol\":819:823  uint */\n      0x00\n        /* \"contracts/Struct.sol\":834:856  Monster memory monster */\n      dup1\n        /* \"contracts/Struct.sol\":859:867  monsters */\n      0x00\n        /* \"contracts/Struct.sol\":868:871  _id */\n      dup5\n        /* \"contracts/Struct.sol\":859:872  monsters[_id] */\n      dup2\n      sload\n      dup2\n      lt\n      tag_21\n      jumpi\n      tag_22\n      tag_23\n      jump\t// in\n    tag_22:\n    tag_21:\n      swap1\n      0x00\n      mstore\n      keccak256(0x00, 0x20)\n      swap1\n      0x03\n      mul\n      add\n        /* \"contracts/Struct.sol\":834:872  Monster memory monster = monsters[_id] */\n      mload(0x40)\n      dup1\n      0x60\n      add\n      0x40\n      mstore\n      swap1\n      dup2\n      0x00\n      dup3\n      add\n      dup1\n      sload\n      tag_25\n      swap1\n      tag_26\n      jump\t// in\n    tag_25:\n      dup1\n      0x1f\n      add\n      0x20\n      dup1\n      swap2\n      div\n      mul\n      0x20\n      add\n      mload(0x40)\n      swap1\n      dup2\n      add\n      0x40\n      mstore\n      dup1\n      swap3\n      swap2\n      swap1\n      dup2\n      dup2\n      mstore\n      0x20\n      add\n      dup3\n      dup1\n      sload\n      tag_27\n      swap1\n      tag_26\n      jump\t// in\n    tag_27:\n      dup1\n      iszero\n      tag_28\n      jumpi\n      dup1\n      0x1f\n      lt\n      tag_29\n      jumpi\n      0x0100\n      dup1\n      dup4\n      sload\n      div\n      mul\n      dup4\n      mstore\n      swap2\n      0x20\n      add\n      swap2\n      jump(tag_28)\n    tag_29:\n      dup3\n      add\n      swap2\n      swap1\n      0x00\n      mstore\n      keccak256(0x00, 0x20)\n      swap1\n    tag_30:\n      dup2\n      sload\n      dup2\n      mstore\n      swap1\n      0x01\n      add\n      swap1\n      0x20\n      add\n      dup1\n      dup4\n      gt\n      tag_30\n      jumpi\n      dup3\n      swap1\n      sub\n      0x1f\n      and\n      dup3\n      add\n      swap2\n    tag_28:\n      pop\n      pop\n      pop\n      pop\n      pop\n      dup2\n      mstore\n      0x20\n      add\n      0x01\n      dup3\n      add\n      sload\n      dup2\n      mstore\n      0x20\n      add\n      0x02\n      dup3\n      add\n      0x00\n      swap1\n      sload\n      swap1\n      0x0100\n      exp\n      swap1\n      div\n      0xff\n      and\n      0x02\n      dup2\n      gt\n      iszero\n      tag_31\n      jumpi\n      tag_32\n      tag_33\n      jump\t// in\n    tag_32:\n    tag_31:\n      0x02\n      dup2\n      gt\n      iszero\n      tag_34\n      jumpi\n      tag_35\n      tag_33\n      jump\t// in\n    tag_35:\n    tag_34:\n      dup2\n      mstore\n      pop\n      pop\n      swap1\n      pop\n        /* \"contracts/Struct.sol\":890:897  monster */\n      dup1\n        /* \"contracts/Struct.sol\":890:902  monster.name */\n      0x00\n      add\n      mload\n        /* \"contracts/Struct.sol\":903:910  monster */\n      dup2\n        /* \"contracts/Struct.sol\":903:916  monster.power */\n      0x20\n      add\n      mload\n        /* \"contracts/Struct.sol\":882:917  return (monster.name,monster.power) */\n      swap3\n      pop\n      swap3\n      pop\n      pop\n        /* \"contracts/Struct.sol\":752:924  function getMonster(uint _id) external view returns(string memory, uint){... */\n      swap2\n      pop\n      swap2\n      jump\t// out\n        /* \"contracts/Struct.sol\":291:746  function createMonster(string memory _name) public{... */\n    tag_15:\n        /* \"contracts/Struct.sol\":351:376  Monster memory newMonster */\n      tag_37\n      tag_38\n      jump\t// in\n    tag_37:\n        /* \"contracts/Struct.sol\":404:409  _name */\n      dup2\n        /* \"contracts/Struct.sol\":386:396  newMonster */\n      dup2\n        /* \"contracts/Struct.sol\":386:401  newMonster.name */\n      0x00\n      add\n        /* \"contracts/Struct.sol\":386:409  newMonster.name = _name */\n      dup2\n      swap1\n      mstore\n      pop\n        /* \"contracts/Struct.sol\":456:458  20 */\n      0x14\n        /* \"contracts/Struct.sol\":438:453  block.timestamp */\n      timestamp\n        /* \"contracts/Struct.sol\":438:458  block.timestamp % 20 */\n      tag_39\n      swap2\n      swap1\n      tag_40\n      jump\t// in\n    tag_39:\n        /* \"contracts/Struct.sol\":419:429  newMonster */\n      dup2\n        /* \"contracts/Struct.sol\":419:435  newMonster.power */\n      0x20\n      add\n        /* \"contracts/Struct.sol\":419:458  newMonster.power = block.timestamp % 20 */\n      dup2\n      dup2\n      mstore\n      pop\n      pop\n        /* \"contracts/Struct.sol\":496:497  0 */\n      0x00\n        /* \"contracts/Struct.sol\":491:492  4 */\n      0x04\n        /* \"contracts/Struct.sol\":473:488  block.timestamp */\n      timestamp\n        /* \"contracts/Struct.sol\":473:492  block.timestamp % 4 */\n      tag_41\n      swap2\n      swap1\n      tag_40\n      jump\t// in\n    tag_41:\n        /* \"contracts/Struct.sol\":473:497  block.timestamp % 4 == 0 */\n      sub\n        /* \"contracts/Struct.sol\":469:704  if (block.timestamp % 4 == 0){newMonster.type1 = typeMonster.Rare;}... */\n      tag_42\n      jumpi\n        /* \"contracts/Struct.sol\":518:534  typeMonster.Rare */\n      0x02\n        /* \"contracts/Struct.sol\":499:509  newMonster */\n      dup2\n        /* \"contracts/Struct.sol\":499:515  newMonster.type1 */\n      0x40\n      add\n        /* \"contracts/Struct.sol\":499:534  newMonster.type1 = typeMonster.Rare */\n      swap1\n      0x02\n      dup2\n      gt\n      iszero\n      tag_43\n      jumpi\n      tag_44\n      tag_33\n      jump\t// in\n    tag_44:\n    tag_43:\n      swap1\n      dup2\n      0x02\n      dup2\n      gt\n      iszero\n      tag_45\n      jumpi\n      tag_46\n      tag_33\n      jump\t// in\n    tag_46:\n    tag_45:\n      dup2\n      mstore\n      pop\n      pop\n        /* \"contracts/Struct.sol\":469:704  if (block.timestamp % 4 == 0){newMonster.type1 = typeMonster.Rare;}... */\n      jump(tag_47)\n    tag_42:\n        /* \"contracts/Struct.sol\":578:579  1 */\n      0x01\n        /* \"contracts/Struct.sol\":573:574  4 */\n      0x04\n        /* \"contracts/Struct.sol\":554:569  block.timestamp */\n      timestamp\n        /* \"contracts/Struct.sol\":554:574  block.timestamp  % 4 */\n      tag_48\n      swap2\n      swap1\n      tag_40\n      jump\t// in\n    tag_48:\n        /* \"contracts/Struct.sol\":554:579  block.timestamp  % 4 == 1 */\n      sub\n        /* \"contracts/Struct.sol\":550:704  if (block.timestamp  % 4 == 1){newMonster.type1 = typeMonster.Special;}... */\n      tag_49\n      jumpi\n        /* \"contracts/Struct.sol\":600:619  typeMonster.Special */\n      0x00\n        /* \"contracts/Struct.sol\":581:591  newMonster */\n      dup2\n        /* \"contracts/Struct.sol\":581:597  newMonster.type1 */\n      0x40\n      add\n        /* \"contracts/Struct.sol\":581:619  newMonster.type1 = typeMonster.Special */\n      swap1\n      0x02\n      dup2\n      gt\n      iszero\n      tag_50\n      jumpi\n      tag_51\n      tag_33\n      jump\t// in\n    tag_51:\n    tag_50:\n      swap1\n      dup2\n      0x02\n      dup2\n      gt\n      iszero\n      tag_52\n      jumpi\n      tag_53\n      tag_33\n      jump\t// in\n    tag_53:\n    tag_52:\n      dup2\n      mstore\n      pop\n      pop\n        /* \"contracts/Struct.sol\":550:704  if (block.timestamp  % 4 == 1){newMonster.type1 = typeMonster.Special;}... */\n      jump(tag_54)\n    tag_49:\n        /* \"contracts/Struct.sol\":662:663  2 */\n      0x02\n        /* \"contracts/Struct.sol\":657:658  4 */\n      0x04\n        /* \"contracts/Struct.sol\":639:654  block.timestamp */\n      timestamp\n        /* \"contracts/Struct.sol\":639:658  block.timestamp % 4 */\n      tag_55\n      swap2\n      swap1\n      tag_40\n      jump\t// in\n    tag_55:\n        /* \"contracts/Struct.sol\":639:663  block.timestamp % 4 == 2 */\n      sub\n        /* \"contracts/Struct.sol\":635:704  if (block.timestamp % 4 == 2){newMonster.type1 = typeMonster.Normal;} */\n      tag_56\n      jumpi\n        /* \"contracts/Struct.sol\":684:702  typeMonster.Normal */\n      0x01\n        /* \"contracts/Struct.sol\":665:675  newMonster */\n      dup2\n        /* \"contracts/Struct.sol\":665:681  newMonster.type1 */\n      0x40\n      add\n        /* \"contracts/Struct.sol\":665:702  newMonster.type1 = typeMonster.Normal */\n      swap1\n      0x02\n      dup2\n      gt\n      iszero\n      tag_57\n      jumpi\n      tag_58\n      tag_33\n      jump\t// in\n    tag_58:\n    tag_57:\n      swap1\n      dup2\n      0x02\n      dup2\n      gt\n      iszero\n      tag_59\n      jumpi\n      tag_60\n      tag_33\n      jump\t// in\n    tag_60:\n    tag_59:\n      dup2\n      mstore\n      pop\n      pop\n        /* \"contracts/Struct.sol\":635:704  if (block.timestamp % 4 == 2){newMonster.type1 = typeMonster.Normal;} */\n    tag_56:\n        /* \"contracts/Struct.sol\":550:704  if (block.timestamp  % 4 == 1){newMonster.type1 = typeMonster.Special;}... */\n    tag_54:\n        /* \"contracts/Struct.sol\":469:704  if (block.timestamp % 4 == 0){newMonster.type1 = typeMonster.Rare;}... */\n    tag_47:\n        /* \"contracts/Struct.sol\":714:722  monsters */\n      0x00\n        /* \"contracts/Struct.sol\":728:738  newMonster */\n      dup2\n        /* \"contracts/Struct.sol\":714:739  monsters.push(newMonster) */\n      swap1\n      dup1\n      0x01\n      dup2\n      sload\n      add\n      dup1\n      dup3\n      sstore\n      dup1\n      swap2\n      pop\n      pop\n      0x01\n      swap1\n      sub\n      swap1\n      0x00\n      mstore\n      keccak256(0x00, 0x20)\n      swap1\n      0x03\n      mul\n      add\n      0x00\n      swap1\n      swap2\n      swap1\n      swap2\n      swap1\n      swap2\n      pop\n      0x00\n      dup3\n      add\n      mload\n      dup2\n      0x00\n      add\n      swap1\n      dup2\n      tag_62\n      swap2\n      swap1\n      tag_63\n      jump\t// in\n    tag_62:\n      pop\n      0x20\n      dup3\n      add\n      mload\n      dup2\n      0x01\n      add\n      sstore\n      0x40\n      dup3\n      add\n      mload\n      dup2\n      0x02\n      add\n      exp(0x0100, 0x00)\n      dup2\n      sload\n      dup2\n      0xff\n      mul\n      not\n      and\n      swap1\n      dup4\n      0x02\n      dup2\n      gt\n      iszero\n      tag_64\n      jumpi\n      tag_65\n      tag_33\n      jump\t// in\n    tag_65:\n    tag_64:\n      mul\n      or\n      swap1\n      sstore\n      pop\n      pop\n      pop\n        /* \"contracts/Struct.sol\":341:746  {... */\n      pop\n        /* \"contracts/Struct.sol\":291:746  function createMonster(string memory _name) public{... */\n      pop\n      jump\t// out\n        /* \"contracts/Struct.sol\":930:1110  function updatePower(uint _id, uint _newPower) public {... */\n    tag_19:\n        /* \"contracts/Struct.sol\":995:1018  Monster storage monster */\n      0x00\n        /* \"contracts/Struct.sol\":1021:1029  monsters */\n      dup1\n        /* \"contracts/Struct.sol\":1030:1033  _id */\n      dup4\n        /* \"contracts/Struct.sol\":1021:1034  monsters[_id] */\n      dup2\n      sload\n      dup2\n      lt\n      tag_67\n      jumpi\n      tag_68\n      tag_23\n      jump\t// in\n    tag_68:\n    tag_67:\n      swap1\n      0x00\n      mstore\n      keccak256(0x00, 0x20)\n      swap1\n      0x03\n      mul\n      add\n        /* \"contracts/Struct.sol\":995:1034  Monster storage monster = monsters[_id] */\n      swap1\n      pop\n        /* \"contracts/Struct.sol\":1060:1069  _newPower */\n      dup2\n        /* \"contracts/Struct.sol\":1044:1051  monster */\n      dup2\n        /* \"contracts/Struct.sol\":1044:1057  monster.power */\n      0x01\n      add\n        /* \"contracts/Struct.sol\":1044:1069  monster.power = _newPower */\n      dup2\n      swap1\n      sstore\n      pop\n        /* \"contracts/Struct.sol\":1096:1103  monster */\n      dup1\n        /* \"contracts/Struct.sol\":1080:1088  monsters */\n      0x00\n        /* \"contracts/Struct.sol\":1089:1092  _id */\n      dup5\n        /* \"contracts/Struct.sol\":1080:1093  monsters[_id] */\n      dup2\n      sload\n      dup2\n      lt\n      tag_70\n      jumpi\n      tag_71\n      tag_23\n      jump\t// in\n    tag_71:\n    tag_70:\n      swap1\n      0x00\n      mstore\n      keccak256(0x00, 0x20)\n      swap1\n      0x03\n      mul\n      add\n        /* \"contracts/Struct.sol\":1080:1103  monsters[_id] = monster */\n      0x00\n      dup3\n      add\n      dup2\n      0x00\n      add\n      swap1\n      dup2\n      tag_73\n      swap2\n      swap1\n      tag_74\n      jump\t// in\n    tag_73:\n      pop\n      0x01\n      dup3\n      add\n      sload\n      dup2\n      0x01\n      add\n      sstore\n      0x02\n      dup3\n      add\n      0x00\n      swap1\n      sload\n      swap1\n      0x0100\n      exp\n      swap1\n      div\n      0xff\n      and\n      dup2\n      0x02\n      add\n      exp(0x0100, 0x00)\n      dup2\n      sload\n      dup2\n      0xff\n      mul\n      not\n      and\n      swap1\n      dup4\n      0x02\n      dup2\n      gt\n      iszero\n      tag_75\n      jumpi\n      tag_76\n      tag_33\n      jump\t// in\n    tag_76:\n    tag_75:\n      mul\n      or\n      swap1\n      sstore\n      pop\n      swap1\n      pop\n      pop\n        /* \"contracts/Struct.sol\":984:1110  {... */\n      pop\n        /* \"contracts/Struct.sol\":930:1110  function updatePower(uint _id, uint _newPower) public {... */\n      pop\n      pop\n      jump\t// out\n    tag_38:\n      mload(0x40)\n      dup1\n      0x60\n      add\n      0x40\n      mstore\n      dup1\n      0x60\n      dup2\n      mstore\n      0x20\n      add\n      0x00\n      dup2\n      mstore\n      0x20\n      add\n      0x00\n      0x02\n      dup2\n      gt\n      iszero\n      tag_77\n      jumpi\n      tag_78\n      tag_33\n      jump\t// in\n    tag_78:\n    tag_77:\n      dup2\n      mstore\n      pop\n      swap1\n      jump\t// out\n        /* \"#utility.yul\":7:82   */\n    tag_79:\n        /* \"#utility.yul\":40:46   */\n      0x00\n        /* \"#utility.yul\":73:75   */\n      0x40\n        /* \"#utility.yul\":67:76   */\n      mload\n        /* \"#utility.yul\":57:76   */\n      swap1\n      pop\n        /* \"#utility.yul\":7:82   */\n      swap1\n      jump\t// out\n        /* \"#utility.yul\":88:205   */\n    tag_80:\n        /* \"#utility.yul\":197:198   */\n      0x00\n        /* \"#utility.yul\":194:195   */\n      dup1\n        /* \"#utility.yul\":187:199   */\n      revert\n        /* \"#utility.yul\":211:328   */\n    tag_81:\n        /* \"#utility.yul\":320:321   */\n      0x00\n        /* \"#utility.yul\":317:318   */\n      dup1\n        /* \"#utility.yul\":310:322   */\n      revert\n        /* \"#utility.yul\":334:411   */\n    tag_82:\n        /* \"#utility.yul\":371:378   */\n      0x00\n        /* \"#utility.yul\":400:405   */\n      dup2\n        /* \"#utility.yul\":389:405   */\n      swap1\n      pop\n        /* \"#utility.yul\":334:411   */\n      swap2\n      swap1\n      pop\n      jump\t// out\n        /* \"#utility.yul\":417:539   */\n    tag_83:\n        /* \"#utility.yul\":490:514   */\n      tag_124\n        /* \"#utility.yul\":508:513   */\n      dup2\n        /* \"#utility.yul\":490:514   */\n      tag_82\n      jump\t// in\n    tag_124:\n        /* \"#utility.yul\":483:488   */\n      dup2\n        /* \"#utility.yul\":480:515   */\n      eq\n        /* \"#utility.yul\":470:533   */\n      tag_125\n      jumpi\n        /* \"#utility.yul\":529:530   */\n      0x00\n        /* \"#utility.yul\":526:527   */\n      dup1\n        /* \"#utility.yul\":519:531   */\n      revert\n        /* \"#utility.yul\":470:533   */\n    tag_125:\n        /* \"#utility.yul\":417:539   */\n      pop\n      jump\t// out\n        /* \"#utility.yul\":545:684   */\n    tag_84:\n        /* \"#utility.yul\":591:596   */\n      0x00\n        /* \"#utility.yul\":629:635   */\n      dup2\n        /* \"#utility.yul\":616:636   */\n      calldataload\n        /* \"#utility.yul\":607:636   */\n      swap1\n      pop\n        /* \"#utility.yul\":645:678   */\n      tag_127\n        /* \"#utility.yul\":672:677   */\n      dup2\n        /* \"#utility.yul\":645:678   */\n      tag_83\n      jump\t// in\n    tag_127:\n        /* \"#utility.yul\":545:684   */\n      swap3\n      swap2\n      pop\n      pop\n      jump\t// out\n        /* \"#utility.yul\":690:1019   */\n    tag_8:\n        /* \"#utility.yul\":749:755   */\n      0x00\n        /* \"#utility.yul\":798:800   */\n      0x20\n        /* \"#utility.yul\":786:795   */\n      dup3\n        /* \"#utility.yul\":777:784   */\n      dup5\n        /* \"#utility.yul\":773:796   */\n      sub\n        /* \"#utility.yul\":769:801   */\n      slt\n        /* \"#utility.yul\":766:885   */\n      iszero\n      tag_129\n      jumpi\n        /* \"#utility.yul\":804:883   */\n      tag_130\n      tag_80\n      jump\t// in\n    tag_130:\n        /* \"#utility.yul\":766:885   */\n    tag_129:\n        /* \"#utility.yul\":924:925   */\n      0x00\n        /* \"#utility.yul\":949:1002   */\n      tag_131\n        /* \"#utility.yul\":994:1001   */\n      dup5\n        /* \"#utility.yul\":985:991   */\n      dup3\n        /* \"#utility.yul\":974:983   */\n      dup6\n        /* \"#utility.yul\":970:992   */\n      add\n        /* \"#utility.yul\":949:1002   */\n      tag_84\n      jump\t// in\n    tag_131:\n        /* \"#utility.yul\":939:1002   */\n      swap2\n      pop\n        /* \"#utility.yul\":895:1012   */\n      pop\n        /* \"#utility.yul\":690:1019   */\n      swap3\n      swap2\n      pop\n      pop\n      jump\t// out\n        /* \"#utility.yul\":1025:1124   */\n    tag_85:\n        /* \"#utility.yul\":1077:1083   */\n      0x00\n        /* \"#utility.yul\":1111:1116   */\n      dup2\n        /* \"#utility.yul\":1105:1117   */\n      mload\n        /* \"#utility.yul\":1095:1117   */\n      swap1\n      pop\n        /* \"#utility.yul\":1025:1124   */\n      swap2\n      swap1\n      pop\n      jump\t// out\n        /* \"#utility.yul\":1130:1299   */\n    tag_86:\n        /* \"#utility.yul\":1214:1225   */\n      0x00\n        /* \"#utility.yul\":1248:1254   */\n      dup3\n        /* \"#utility.yul\":1243:1246   */\n      dup3\n        /* \"#utility.yul\":1236:1255   */\n      mstore\n        /* \"#utility.yul\":1288:1292   */\n      0x20\n        /* \"#utility.yul\":1283:1286   */\n      dup3\n        /* \"#utility.yul\":1279:1293   */\n      add\n        /* \"#utility.yul\":1264:1293   */\n      swap1\n      pop\n        /* \"#utility.yul\":1130:1299   */\n      swap3\n      swap2\n      pop\n      pop\n      jump\t// out\n        /* \"#utility.yul\":1305:1551   */\n    tag_87:\n        /* \"#utility.yul\":1386:1387   */\n      0x00\n        /* \"#utility.yul\":1396:1509   */\n    tag_135:\n        /* \"#utility.yul\":1410:1416   */\n      dup4\n        /* \"#utility.yul\":1407:1408   */\n      dup2\n        /* \"#utility.yul\":1404:1417   */\n      lt\n        /* \"#utility.yul\":1396:1509   */\n      iszero\n      tag_137\n      jumpi\n        /* \"#utility.yul\":1495:1496   */\n      dup1\n        /* \"#utility.yul\":1490:1493   */\n      dup3\n        /* \"#utility.yul\":1486:1497   */\n      add\n        /* \"#utility.yul\":1480:1498   */\n      mload\n        /* \"#utility.yul\":1476:1477   */\n      dup2\n        /* \"#utility.yul\":1471:1474   */\n      dup5\n        /* \"#utility.yul\":1467:1478   */\n      add\n        /* \"#utility.yul\":1460:1499   */\n      mstore\n        /* \"#utility.yul\":1432:1434   */\n      0x20\n        /* \"#utility.yul\":1429:1430   */\n      dup2\n        /* \"#utility.yul\":1425:1435   */\n      add\n        /* \"#utility.yul\":1420:1435   */\n      swap1\n      pop\n        /* \"#utility.yul\":1396:1509   */\n      jump(tag_135)\n    tag_137:\n        /* \"#utility.yul\":1543:1544   */\n      0x00\n        /* \"#utility.yul\":1534:1540   */\n      dup5\n        /* \"#utility.yul\":1529:1532   */\n      dup5\n        /* \"#utility.yul\":1525:1541   */\n      add\n        /* \"#utility.yul\":1518:1545   */\n      mstore\n        /* \"#utility.yul\":1367:1551   */\n      pop\n        /* \"#utility.yul\":1305:1551   */\n      pop\n      pop\n      pop\n      jump\t// out\n        /* \"#utility.yul\":1557:1659   */\n    tag_88:\n        /* \"#utility.yul\":1598:1604   */\n      0x00\n        /* \"#utility.yul\":1649:1651   */\n      0x1f\n        /* \"#utility.yul\":1645:1652   */\n      not\n        /* \"#utility.yul\":1640:1642   */\n      0x1f\n        /* \"#utility.yul\":1633:1638   */\n      dup4\n        /* \"#utility.yul\":1629:1643   */\n      add\n        /* \"#utility.yul\":1625:1653   */\n      and\n        /* \"#utility.yul\":1615:1653   */\n      swap1\n      pop\n        /* \"#utility.yul\":1557:1659   */\n      swap2\n      swap1\n      pop\n      jump\t// out\n        /* \"#utility.yul\":1665:2042   */\n    tag_89:\n        /* \"#utility.yul\":1753:1756   */\n      0x00\n        /* \"#utility.yul\":1781:1820   */\n      tag_140\n        /* \"#utility.yul\":1814:1819   */\n      dup3\n        /* \"#utility.yul\":1781:1820   */\n      tag_85\n      jump\t// in\n    tag_140:\n        /* \"#utility.yul\":1836:1907   */\n      tag_141\n        /* \"#utility.yul\":1900:1906   */\n      dup2\n        /* \"#utility.yul\":1895:1898   */\n      dup6\n        /* \"#utility.yul\":1836:1907   */\n      tag_86\n      jump\t// in\n    tag_141:\n        /* \"#utility.yul\":1829:1907   */\n      swap4\n      pop\n        /* \"#utility.yul\":1916:1981   */\n      tag_142\n        /* \"#utility.yul\":1974:1980   */\n      dup2\n        /* \"#utility.yul\":1969:1972   */\n      dup6\n        /* \"#utility.yul\":1962:1966   */\n      0x20\n        /* \"#utility.yul\":1955:1960   */\n      dup7\n        /* \"#utility.yul\":1951:1967   */\n      add\n        /* \"#utility.yul\":1916:1981   */\n      tag_87\n      jump\t// in\n    tag_142:\n        /* \"#utility.yul\":2006:2035   */\n      tag_143\n        /* \"#utility.yul\":2028:2034   */\n      dup2\n        /* \"#utility.yul\":2006:2035   */\n      tag_88\n      jump\t// in\n    tag_143:\n        /* \"#utility.yul\":2001:2004   */\n      dup5\n        /* \"#utility.yul\":1997:2036   */\n      add\n        /* \"#utility.yul\":1990:2036   */\n      swap2\n      pop\n        /* \"#utility.yul\":1757:2042   */\n      pop\n        /* \"#utility.yul\":1665:2042   */\n      swap3\n      swap2\n      pop\n      pop\n      jump\t// out\n        /* \"#utility.yul\":2048:2166   */\n    tag_90:\n        /* \"#utility.yul\":2135:2159   */\n      tag_145\n        /* \"#utility.yul\":2153:2158   */\n      dup2\n        /* \"#utility.yul\":2135:2159   */\n      tag_82\n      jump\t// in\n    tag_145:\n        /* \"#utility.yul\":2130:2133   */\n      dup3\n        /* \"#utility.yul\":2123:2160   */\n      mstore\n        /* \"#utility.yul\":2048:2166   */\n      pop\n      pop\n      jump\t// out\n        /* \"#utility.yul\":2172:2595   */\n    tag_11:\n        /* \"#utility.yul\":2313:2317   */\n      0x00\n        /* \"#utility.yul\":2351:2353   */\n      0x40\n        /* \"#utility.yul\":2340:2349   */\n      dup3\n        /* \"#utility.yul\":2336:2354   */\n      add\n        /* \"#utility.yul\":2328:2354   */\n      swap1\n      pop\n        /* \"#utility.yul\":2400:2409   */\n      dup2\n        /* \"#utility.yul\":2394:2398   */\n      dup2\n        /* \"#utility.yul\":2390:2410   */\n      sub\n        /* \"#utility.yul\":2386:2387   */\n      0x00\n        /* \"#utility.yul\":2375:2384   */\n      dup4\n        /* \"#utility.yul\":2371:2388   */\n      add\n        /* \"#utility.yul\":2364:2411   */\n      mstore\n        /* \"#utility.yul\":2428:2506   */\n      tag_147\n        /* \"#utility.yul\":2501:2505   */\n      dup2\n        /* \"#utility.yul\":2492:2498   */\n      dup6\n        /* \"#utility.yul\":2428:2506   */\n      tag_89\n      jump\t// in\n    tag_147:\n        /* \"#utility.yul\":2420:2506   */\n      swap1\n      pop\n        /* \"#utility.yul\":2516:2588   */\n      tag_148\n        /* \"#utility.yul\":2584:2586   */\n      0x20\n        /* \"#utility.yul\":2573:2582   */\n      dup4\n        /* \"#utility.yul\":2569:2587   */\n      add\n        /* \"#utility.yul\":2560:2566   */\n      dup5\n        /* \"#utility.yul\":2516:2588   */\n      tag_90\n      jump\t// in\n    tag_148:\n        /* \"#utility.yul\":2172:2595   */\n      swap4\n      swap3\n      pop\n      pop\n      pop\n      jump\t// out\n        /* \"#utility.yul\":2601:2718   */\n    tag_91:\n        /* \"#utility.yul\":2710:2711   */\n      0x00\n        /* \"#utility.yul\":2707:2708   */\n      dup1\n        /* \"#utility.yul\":2700:2712   */\n      revert\n        /* \"#utility.yul\":2724:2841   */\n    tag_92:\n        /* \"#utility.yul\":2833:2834   */\n      0x00\n        /* \"#utility.yul\":2830:2831   */\n      dup1\n        /* \"#utility.yul\":2823:2835   */\n      revert\n        /* \"#utility.yul\":2847:3027   */\n    tag_93:\n        /* \"#utility.yul\":2895:2972   */\n      0x4e487b7100000000000000000000000000000000000000000000000000000000\n        /* \"#utility.yul\":2892:2893   */\n      0x00\n        /* \"#utility.yul\":2885:2973   */\n      mstore\n        /* \"#utility.yul\":2992:2996   */\n      0x41\n        /* \"#utility.yul\":2989:2990   */\n      0x04\n        /* \"#utility.yul\":2982:2997   */\n      mstore\n        /* \"#utility.yul\":3016:3020   */\n      0x24\n        /* \"#utility.yul\":3013:3014   */\n      0x00\n        /* \"#utility.yul\":3006:3021   */\n      revert\n        /* \"#utility.yul\":3033:3314   */\n    tag_94:\n        /* \"#utility.yul\":3116:3143   */\n      tag_153\n        /* \"#utility.yul\":3138:3142   */\n      dup3\n        /* \"#utility.yul\":3116:3143   */\n      tag_88\n      jump\t// in\n    tag_153:\n        /* \"#utility.yul\":3108:3114   */\n      dup2\n        /* \"#utility.yul\":3104:3144   */\n      add\n        /* \"#utility.yul\":3246:3252   */\n      dup2\n        /* \"#utility.yul\":3234:3244   */\n      dup2\n        /* \"#utility.yul\":3231:3253   */\n      lt\n        /* \"#utility.yul\":3210:3228   */\n      0xffffffffffffffff\n        /* \"#utility.yul\":3198:3208   */\n      dup3\n        /* \"#utility.yul\":3195:3229   */\n      gt\n        /* \"#utility.yul\":3192:3254   */\n      or\n        /* \"#utility.yul\":3189:3277   */\n      iszero\n      tag_154\n      jumpi\n        /* \"#utility.yul\":3257:3275   */\n      tag_155\n      tag_93\n      jump\t// in\n    tag_155:\n        /* \"#utility.yul\":3189:3277   */\n    tag_154:\n        /* \"#utility.yul\":3297:3307   */\n      dup1\n        /* \"#utility.yul\":3293:3295   */\n      0x40\n        /* \"#utility.yul\":3286:3308   */\n      mstore\n        /* \"#utility.yul\":3076:3314   */\n      pop\n        /* \"#utility.yul\":3033:3314   */\n      pop\n      pop\n      jump\t// out\n        /* \"#utility.yul\":3320:3449   */\n    tag_95:\n        /* \"#utility.yul\":3354:3360   */\n      0x00\n        /* \"#utility.yul\":3381:3401   */\n      tag_157\n      tag_79\n      jump\t// in\n    tag_157:\n        /* \"#utility.yul\":3371:3401   */\n      swap1\n      pop\n        /* \"#utility.yul\":3410:3443   */\n      tag_158\n        /* \"#utility.yul\":3438:3442   */\n      dup3\n        /* \"#utility.yul\":3430:3436   */\n      dup3\n        /* \"#utility.yul\":3410:3443   */\n      tag_94\n      jump\t// in\n    tag_158:\n        /* \"#utility.yul\":3320:3449   */\n      swap2\n      swap1\n      pop\n      jump\t// out\n        /* \"#utility.yul\":3455:3763   */\n    tag_96:\n        /* \"#utility.yul\":3517:3521   */\n      0x00\n        /* \"#utility.yul\":3607:3625   */\n      0xffffffffffffffff\n        /* \"#utility.yul\":3599:3605   */\n      dup3\n        /* \"#utility.yul\":3596:3626   */\n      gt\n        /* \"#utility.yul\":3593:3649   */\n      iszero\n      tag_160\n      jumpi\n        /* \"#utility.yul\":3629:3647   */\n      tag_161\n      tag_93\n      jump\t// in\n    tag_161:\n        /* \"#utility.yul\":3593:3649   */\n    tag_160:\n        /* \"#utility.yul\":3667:3696   */\n      tag_162\n        /* \"#utility.yul\":3689:3695   */\n      dup3\n        /* \"#utility.yul\":3667:3696   */\n      tag_88\n      jump\t// in\n    tag_162:\n        /* \"#utility.yul\":3659:3696   */\n      swap1\n      pop\n        /* \"#utility.yul\":3751:3755   */\n      0x20\n        /* \"#utility.yul\":3745:3749   */\n      dup2\n        /* \"#utility.yul\":3741:3756   */\n      add\n        /* \"#utility.yul\":3733:3756   */\n      swap1\n      pop\n        /* \"#utility.yul\":3455:3763   */\n      swap2\n      swap1\n      pop\n      jump\t// out\n        /* \"#utility.yul\":3769:3915   */\n    tag_97:\n        /* \"#utility.yul\":3866:3872   */\n      dup3\n        /* \"#utility.yul\":3861:3864   */\n      dup2\n        /* \"#utility.yul\":3856:3859   */\n      dup4\n        /* \"#utility.yul\":3843:3873   */\n      calldatacopy\n        /* \"#utility.yul\":3907:3908   */\n      0x00\n        /* \"#utility.yul\":3898:3904   */\n      dup4\n        /* \"#utility.yul\":3893:3896   */\n      dup4\n        /* \"#utility.yul\":3889:3905   */\n      add\n        /* \"#utility.yul\":3882:3909   */\n      mstore\n        /* \"#utility.yul\":3769:3915   */\n      pop\n      pop\n      pop\n      jump\t// out\n        /* \"#utility.yul\":3921:4346   */\n    tag_98:\n        /* \"#utility.yul\":3999:4004   */\n      0x00\n        /* \"#utility.yul\":4024:4090   */\n      tag_165\n        /* \"#utility.yul\":4040:4089   */\n      tag_166\n        /* \"#utility.yul\":4082:4088   */\n      dup5\n        /* \"#utility.yul\":4040:4089   */\n      tag_96\n      jump\t// in\n    tag_166:\n        /* \"#utility.yul\":4024:4090   */\n      tag_95\n      jump\t// in\n    tag_165:\n        /* \"#utility.yul\":4015:4090   */\n      swap1\n      pop\n        /* \"#utility.yul\":4113:4119   */\n      dup3\n        /* \"#utility.yul\":4106:4111   */\n      dup2\n        /* \"#utility.yul\":4099:4120   */\n      mstore\n        /* \"#utility.yul\":4151:4155   */\n      0x20\n        /* \"#utility.yul\":4144:4149   */\n      dup2\n        /* \"#utility.yul\":4140:4156   */\n      add\n        /* \"#utility.yul\":4189:4192   */\n      dup5\n        /* \"#utility.yul\":4180:4186   */\n      dup5\n        /* \"#utility.yul\":4175:4178   */\n      dup5\n        /* \"#utility.yul\":4171:4187   */\n      add\n        /* \"#utility.yul\":4168:4193   */\n      gt\n        /* \"#utility.yul\":4165:4277   */\n      iszero\n      tag_167\n      jumpi\n        /* \"#utility.yul\":4196:4275   */\n      tag_168\n      tag_92\n      jump\t// in\n    tag_168:\n        /* \"#utility.yul\":4165:4277   */\n    tag_167:\n        /* \"#utility.yul\":4286:4340   */\n      tag_169\n        /* \"#utility.yul\":4333:4339   */\n      dup5\n        /* \"#utility.yul\":4328:4331   */\n      dup3\n        /* \"#utility.yul\":4323:4326   */\n      dup6\n        /* \"#utility.yul\":4286:4340   */\n      tag_97\n      jump\t// in\n    tag_169:\n        /* \"#utility.yul\":4005:4346   */\n      pop\n        /* \"#utility.yul\":3921:4346   */\n      swap4\n      swap3\n      pop\n      pop\n      pop\n      jump\t// out\n        /* \"#utility.yul\":4366:4706   */\n    tag_99:\n        /* \"#utility.yul\":4422:4427   */\n      0x00\n        /* \"#utility.yul\":4471:4474   */\n      dup3\n        /* \"#utility.yul\":4464:4468   */\n      0x1f\n        /* \"#utility.yul\":4456:4462   */\n      dup4\n        /* \"#utility.yul\":4452:4469   */\n      add\n        /* \"#utility.yul\":4448:4475   */\n      slt\n        /* \"#utility.yul\":4438:4560   */\n      tag_171\n      jumpi\n        /* \"#utility.yul\":4479:4558   */\n      tag_172\n      tag_91\n      jump\t// in\n    tag_172:\n        /* \"#utility.yul\":4438:4560   */\n    tag_171:\n        /* \"#utility.yul\":4596:4602   */\n      dup2\n        /* \"#utility.yul\":4583:4603   */\n      calldataload\n        /* \"#utility.yul\":4621:4700   */\n      tag_173\n        /* \"#utility.yul\":4696:4699   */\n      dup5\n        /* \"#utility.yul\":4688:4694   */\n      dup3\n        /* \"#utility.yul\":4681:4685   */\n      0x20\n        /* \"#utility.yul\":4673:4679   */\n      dup7\n        /* \"#utility.yul\":4669:4686   */\n      add\n        /* \"#utility.yul\":4621:4700   */\n      tag_98\n      jump\t// in\n    tag_173:\n        /* \"#utility.yul\":4612:4700   */\n      swap2\n      pop\n        /* \"#utility.yul\":4428:4706   */\n      pop\n        /* \"#utility.yul\":4366:4706   */\n      swap3\n      swap2\n      pop\n      pop\n      jump\t// out\n        /* \"#utility.yul\":4712:5221   */\n    tag_14:\n        /* \"#utility.yul\":4781:4787   */\n      0x00\n        /* \"#utility.yul\":4830:4832   */\n      0x20\n        /* \"#utility.yul\":4818:4827   */\n      dup3\n        /* \"#utility.yul\":4809:4816   */\n      dup5\n        /* \"#utility.yul\":4805:4828   */\n      sub\n        /* \"#utility.yul\":4801:4833   */\n      slt\n        /* \"#utility.yul\":4798:4917   */\n      iszero\n      tag_175\n      jumpi\n        /* \"#utility.yul\":4836:4915   */\n      tag_176\n      tag_80\n      jump\t// in\n    tag_176:\n        /* \"#utility.yul\":4798:4917   */\n    tag_175:\n        /* \"#utility.yul\":4984:4985   */\n      0x00\n        /* \"#utility.yul\":4973:4982   */\n      dup3\n        /* \"#utility.yul\":4969:4986   */\n      add\n        /* \"#utility.yul\":4956:4987   */\n      calldataload\n        /* \"#utility.yul\":5014:5032   */\n      0xffffffffffffffff\n        /* \"#utility.yul\":5006:5012   */\n      dup2\n        /* \"#utility.yul\":5003:5033   */\n      gt\n        /* \"#utility.yul\":5000:5117   */\n      iszero\n      tag_177\n      jumpi\n        /* \"#utility.yul\":5036:5115   */\n      tag_178\n      tag_81\n      jump\t// in\n    tag_178:\n        /* \"#utility.yul\":5000:5117   */\n    tag_177:\n        /* \"#utility.yul\":5141:5204   */\n      tag_179\n        /* \"#utility.yul\":5196:5203   */\n      dup5\n        /* \"#utility.yul\":5187:5193   */\n      dup3\n        /* \"#utility.yul\":5176:5185   */\n      dup6\n        /* \"#utility.yul\":5172:5194   */\n      add\n        /* \"#utility.yul\":5141:5204   */\n      tag_99\n      jump\t// in\n    tag_179:\n        /* \"#utility.yul\":5131:5204   */\n      swap2\n      pop\n        /* \"#utility.yul\":4927:5214   */\n      pop\n        /* \"#utility.yul\":4712:5221   */\n      swap3\n      swap2\n      pop\n      pop\n      jump\t// out\n        /* \"#utility.yul\":5227:5701   */\n    tag_18:\n        /* \"#utility.yul\":5295:5301   */\n      0x00\n        /* \"#utility.yul\":5303:5309   */\n      dup1\n        /* \"#utility.yul\":5352:5354   */\n      0x40\n        /* \"#utility.yul\":5340:5349   */\n      dup4\n        /* \"#utility.yul\":5331:5338   */\n      dup6\n        /* \"#utility.yul\":5327:5350   */\n      sub\n        /* \"#utility.yul\":5323:5355   */\n      slt\n        /* \"#utility.yul\":5320:5439   */\n      iszero\n      tag_181\n      jumpi\n        /* \"#utility.yul\":5358:5437   */\n      tag_182\n      tag_80\n      jump\t// in\n    tag_182:\n        /* \"#utility.yul\":5320:5439   */\n    tag_181:\n        /* \"#utility.yul\":5478:5479   */\n      0x00\n        /* \"#utility.yul\":5503:5556   */\n      tag_183\n        /* \"#utility.yul\":5548:5555   */\n      dup6\n        /* \"#utility.yul\":5539:5545   */\n      dup3\n        /* \"#utility.yul\":5528:5537   */\n      dup7\n        /* \"#utility.yul\":5524:5546   */\n      add\n        /* \"#utility.yul\":5503:5556   */\n      tag_84\n      jump\t// in\n    tag_183:\n        /* \"#utility.yul\":5493:5556   */\n      swap3\n      pop\n        /* \"#utility.yul\":5449:5566   */\n      pop\n        /* \"#utility.yul\":5605:5607   */\n      0x20\n        /* \"#utility.yul\":5631:5684   */\n      tag_184\n        /* \"#utility.yul\":5676:5683   */\n      dup6\n        /* \"#utility.yul\":5667:5673   */\n      dup3\n        /* \"#utility.yul\":5656:5665   */\n      dup7\n        /* \"#utility.yul\":5652:5674   */\n      add\n        /* \"#utility.yul\":5631:5684   */\n      tag_84\n      jump\t// in\n    tag_184:\n        /* \"#utility.yul\":5621:5684   */\n      swap2\n      pop\n        /* \"#utility.yul\":5576:5694   */\n      pop\n        /* \"#utility.yul\":5227:5701   */\n      swap3\n      pop\n      swap3\n      swap1\n      pop\n      jump\t// out\n        /* \"#utility.yul\":5707:5887   */\n    tag_23:\n        /* \"#utility.yul\":5755:5832   */\n      0x4e487b7100000000000000000000000000000000000000000000000000000000\n        /* \"#utility.yul\":5752:5753   */\n      0x00\n        /* \"#utility.yul\":5745:5833   */\n      mstore\n        /* \"#utility.yul\":5852:5856   */\n      0x32\n        /* \"#utility.yul\":5849:5850   */\n      0x04\n        /* \"#utility.yul\":5842:5857   */\n      mstore\n        /* \"#utility.yul\":5876:5880   */\n      0x24\n        /* \"#utility.yul\":5873:5874   */\n      0x00\n        /* \"#utility.yul\":5866:5881   */\n      revert\n        /* \"#utility.yul\":5893:6073   */\n    tag_100:\n        /* \"#utility.yul\":5941:6018   */\n      0x4e487b7100000000000000000000000000000000000000000000000000000000\n        /* \"#utility.yul\":5938:5939   */\n      0x00\n        /* \"#utility.yul\":5931:6019   */\n      mstore\n        /* \"#utility.yul\":6038:6042   */\n      0x22\n        /* \"#utility.yul\":6035:6036   */\n      0x04\n        /* \"#utility.yul\":6028:6043   */\n      mstore\n        /* \"#utility.yul\":6062:6066   */\n      0x24\n        /* \"#utility.yul\":6059:6060   */\n      0x00\n        /* \"#utility.yul\":6052:6067   */\n      revert\n        /* \"#utility.yul\":6079:6399   */\n    tag_26:\n        /* \"#utility.yul\":6123:6129   */\n      0x00\n        /* \"#utility.yul\":6160:6161   */\n      0x02\n        /* \"#utility.yul\":6154:6158   */\n      dup3\n        /* \"#utility.yul\":6150:6162   */\n      div\n        /* \"#utility.yul\":6140:6162   */\n      swap1\n      pop\n        /* \"#utility.yul\":6207:6208   */\n      0x01\n        /* \"#utility.yul\":6201:6205   */\n      dup3\n        /* \"#utility.yul\":6197:6209   */\n      and\n        /* \"#utility.yul\":6228:6246   */\n      dup1\n        /* \"#utility.yul\":6218:6299   */\n      tag_188\n      jumpi\n        /* \"#utility.yul\":6284:6288   */\n      0x7f\n        /* \"#utility.yul\":6276:6282   */\n      dup3\n        /* \"#utility.yul\":6272:6289   */\n      and\n        /* \"#utility.yul\":6262:6289   */\n      swap2\n      pop\n        /* \"#utility.yul\":6218:6299   */\n    tag_188:\n        /* \"#utility.yul\":6346:6348   */\n      0x20\n        /* \"#utility.yul\":6338:6344   */\n      dup3\n        /* \"#utility.yul\":6335:6349   */\n      lt\n        /* \"#utility.yul\":6315:6333   */\n      dup2\n        /* \"#utility.yul\":6312:6350   */\n      sub\n        /* \"#utility.yul\":6309:6393   */\n      tag_189\n      jumpi\n        /* \"#utility.yul\":6365:6383   */\n      tag_190\n      tag_100\n      jump\t// in\n    tag_190:\n        /* \"#utility.yul\":6309:6393   */\n    tag_189:\n        /* \"#utility.yul\":6130:6399   */\n      pop\n        /* \"#utility.yul\":6079:6399   */\n      swap2\n      swap1\n      pop\n      jump\t// out\n        /* \"#utility.yul\":6405:6585   */\n    tag_33:\n        /* \"#utility.yul\":6453:6530   */\n      0x4e487b7100000000000000000000000000000000000000000000000000000000\n        /* \"#utility.yul\":6450:6451   */\n      0x00\n        /* \"#utility.yul\":6443:6531   */\n      mstore\n        /* \"#utility.yul\":6550:6554   */\n      0x21\n        /* \"#utility.yul\":6547:6548   */\n      0x04\n        /* \"#utility.yul\":6540:6555   */\n      mstore\n        /* \"#utility.yul\":6574:6578   */\n      0x24\n        /* \"#utility.yul\":6571:6572   */\n      0x00\n        /* \"#utility.yul\":6564:6579   */\n      revert\n        /* \"#utility.yul\":6591:6771   */\n    tag_101:\n        /* \"#utility.yul\":6639:6716   */\n      0x4e487b7100000000000000000000000000000000000000000000000000000000\n        /* \"#utility.yul\":6636:6637   */\n      0x00\n        /* \"#utility.yul\":6629:6717   */\n      mstore\n        /* \"#utility.yul\":6736:6740   */\n      0x12\n        /* \"#utility.yul\":6733:6734   */\n      0x04\n        /* \"#utility.yul\":6726:6741   */\n      mstore\n        /* \"#utility.yul\":6760:6764   */\n      0x24\n        /* \"#utility.yul\":6757:6758   */\n      0x00\n        /* \"#utility.yul\":6750:6765   */\n      revert\n        /* \"#utility.yul\":6777:6953   */\n    tag_40:\n        /* \"#utility.yul\":6809:6810   */\n      0x00\n        /* \"#utility.yul\":6826:6846   */\n      tag_194\n        /* \"#utility.yul\":6844:6845   */\n      dup3\n        /* \"#utility.yul\":6826:6846   */\n      tag_82\n      jump\t// in\n    tag_194:\n        /* \"#utility.yul\":6821:6846   */\n      swap2\n      pop\n        /* \"#utility.yul\":6860:6880   */\n      tag_195\n        /* \"#utility.yul\":6878:6879   */\n      dup4\n        /* \"#utility.yul\":6860:6880   */\n      tag_82\n      jump\t// in\n    tag_195:\n        /* \"#utility.yul\":6855:6880   */\n      swap3\n      pop\n        /* \"#utility.yul\":6899:6900   */\n      dup3\n        /* \"#utility.yul\":6889:6924   */\n      tag_196\n      jumpi\n        /* \"#utility.yul\":6904:6922   */\n      tag_197\n      tag_101\n      jump\t// in\n    tag_197:\n        /* \"#utility.yul\":6889:6924   */\n    tag_196:\n        /* \"#utility.yul\":6945:6946   */\n      dup3\n        /* \"#utility.yul\":6942:6943   */\n      dup3\n        /* \"#utility.yul\":6938:6947   */\n      mod\n        /* \"#utility.yul\":6933:6947   */\n      swap1\n      pop\n        /* \"#utility.yul\":6777:6953   */\n      swap3\n      swap2\n      pop\n      pop\n      jump\t// out\n        /* \"#utility.yul\":6959:7100   */\n    tag_102:\n        /* \"#utility.yul\":7008:7012   */\n      0x00\n        /* \"#utility.yul\":7031:7034   */\n      dup2\n        /* \"#utility.yul\":7023:7034   */\n      swap1\n      pop\n        /* \"#utility.yul\":7054:7057   */\n      dup2\n        /* \"#utility.yul\":7051:7052   */\n      0x00\n        /* \"#utility.yul\":7044:7058   */\n      mstore\n        /* \"#utility.yul\":7088:7092   */\n      0x20\n        /* \"#utility.yul\":7085:7086   */\n      0x00\n        /* \"#utility.yul\":7075:7093   */\n      keccak256\n        /* \"#utility.yul\":7067:7093   */\n      swap1\n      pop\n        /* \"#utility.yul\":6959:7100   */\n      swap2\n      swap1\n      pop\n      jump\t// out\n        /* \"#utility.yul\":7106:7199   */\n    tag_103:\n        /* \"#utility.yul\":7143:7149   */\n      0x00\n        /* \"#utility.yul\":7190:7192   */\n      0x20\n        /* \"#utility.yul\":7185:7187   */\n      0x1f\n        /* \"#utility.yul\":7178:7183   */\n      dup4\n        /* \"#utility.yul\":7174:7188   */\n      add\n        /* \"#utility.yul\":7170:7193   */\n      div\n        /* \"#utility.yul\":7160:7193   */\n      swap1\n      pop\n        /* \"#utility.yul\":7106:7199   */\n      swap2\n      swap1\n      pop\n      jump\t// out\n        /* \"#utility.yul\":7205:7312   */\n    tag_104:\n        /* \"#utility.yul\":7249:7257   */\n      0x00\n        /* \"#utility.yul\":7299:7304   */\n      dup3\n        /* \"#utility.yul\":7293:7297   */\n      dup3\n        /* \"#utility.yul\":7289:7305   */\n      shl\n        /* \"#utility.yul\":7268:7305   */\n      swap1\n      pop\n        /* \"#utility.yul\":7205:7312   */\n      swap3\n      swap2\n      pop\n      pop\n      jump\t// out\n        /* \"#utility.yul\":7318:7711   */\n    tag_105:\n        /* \"#utility.yul\":7387:7393   */\n      0x00\n        /* \"#utility.yul\":7437:7438   */\n      0x08\n        /* \"#utility.yul\":7425:7435   */\n      dup4\n        /* \"#utility.yul\":7421:7439   */\n      mul\n        /* \"#utility.yul\":7460:7557   */\n      tag_202\n        /* \"#utility.yul\":7490:7556   */\n      0xffffffffffffffffffffffffffffffffffffffffffffffffffffffffffffffff\n        /* \"#utility.yul\":7479:7488   */\n      dup3\n        /* \"#utility.yul\":7460:7557   */\n      tag_104\n      jump\t// in\n    tag_202:\n        /* \"#utility.yul\":7578:7617   */\n      tag_203\n        /* \"#utility.yul\":7608:7616   */\n      dup7\n        /* \"#utility.yul\":7597:7606   */\n      dup4\n        /* \"#utility.yul\":7578:7617   */\n      tag_104\n      jump\t// in\n    tag_203:\n        /* \"#utility.yul\":7566:7617   */\n      swap6\n      pop\n        /* \"#utility.yul\":7650:7654   */\n      dup1\n        /* \"#utility.yul\":7646:7655   */\n      not\n        /* \"#utility.yul\":7639:7644   */\n      dup5\n        /* \"#utility.yul\":7635:7656   */\n      and\n        /* \"#utility.yul\":7626:7656   */\n      swap4\n      pop\n        /* \"#utility.yul\":7699:7703   */\n      dup1\n        /* \"#utility.yul\":7689:7697   */\n      dup7\n        /* \"#utility.yul\":7685:7704   */\n      and\n        /* \"#utility.yul\":7678:7683   */\n      dup5\n        /* \"#utility.yul\":7675:7705   */\n      or\n        /* \"#utility.yul\":7665:7705   */\n      swap3\n      pop\n        /* \"#utility.yul\":7394:7711   */\n      pop\n      pop\n        /* \"#utility.yul\":7318:7711   */\n      swap4\n      swap3\n      pop\n      pop\n      pop\n      jump\t// out\n        /* \"#utility.yul\":7717:7777   */\n    tag_106:\n        /* \"#utility.yul\":7745:7748   */\n      0x00\n        /* \"#utility.yul\":7766:7771   */\n      dup2\n        /* \"#utility.yul\":7759:7771   */\n      swap1\n      pop\n        /* \"#utility.yul\":7717:7777   */\n      swap2\n      swap1\n      pop\n      jump\t// out\n        /* \"#utility.yul\":7783:7925   */\n    tag_107:\n        /* \"#utility.yul\":7833:7842   */\n      0x00\n        /* \"#utility.yul\":7866:7919   */\n      tag_206\n        /* \"#utility.yul\":7884:7918   */\n      tag_207\n        /* \"#utility.yul\":7893:7917   */\n      tag_208\n        /* \"#utility.yul\":7911:7916   */\n      dup5\n        /* \"#utility.yul\":7893:7917   */\n      tag_82\n      jump\t// in\n    tag_208:\n        /* \"#utility.yul\":7884:7918   */\n      tag_106\n      jump\t// in\n    tag_207:\n        /* \"#utility.yul\":7866:7919   */\n      tag_82\n      jump\t// in\n    tag_206:\n        /* \"#utility.yul\":7853:7919   */\n      swap1\n      pop\n        /* \"#utility.yul\":7783:7925   */\n      swap2\n      swap1\n      pop\n      jump\t// out\n        /* \"#utility.yul\":7931:8006   */\n    tag_108:\n        /* \"#utility.yul\":7974:7977   */\n      0x00\n        /* \"#utility.yul\":7995:8000   */\n      dup2\n        /* \"#utility.yul\":7988:8000   */\n      swap1\n      pop\n        /* \"#utility.yul\":7931:8006   */\n      swap2\n      swap1\n      pop\n      jump\t// out\n        /* \"#utility.yul\":8012:8281   */\n    tag_109:\n        /* \"#utility.yul\":8122:8161   */\n      tag_211\n        /* \"#utility.yul\":8153:8160   */\n      dup4\n        /* \"#utility.yul\":8122:8161   */\n      tag_107\n      jump\t// in\n    tag_211:\n        /* \"#utility.yul\":8183:8274   */\n      tag_212\n        /* \"#utility.yul\":8232:8273   */\n      tag_213\n        /* \"#utility.yul\":8256:8272   */\n      dup3\n        /* \"#utility.yul\":8232:8273   */\n      tag_108\n      jump\t// in\n    tag_213:\n        /* \"#utility.yul\":8224:8230   */\n      dup5\n        /* \"#utility.yul\":8217:8221   */\n      dup5\n        /* \"#utility.yul\":8211:8222   */\n      sload\n        /* \"#utility.yul\":8183:8274   */\n      tag_105\n      jump\t// in\n    tag_212:\n        /* \"#utility.yul\":8177:8181   */\n      dup3\n        /* \"#utility.yul\":8170:8275   */\n      sstore\n        /* \"#utility.yul\":8088:8281   */\n      pop\n        /* \"#utility.yul\":8012:8281   */\n      pop\n      pop\n      pop\n      jump\t// out\n        /* \"#utility.yul\":8287:8360   */\n    tag_110:\n        /* \"#utility.yul\":8332:8335   */\n      0x00\n        /* \"#utility.yul\":8287:8360   */\n      swap1\n      jump\t// out\n        /* \"#utility.yul\":8366:8555   */\n    tag_111:\n        /* \"#utility.yul\":8443:8475   */\n      tag_216\n      tag_110\n      jump\t// in\n    tag_216:\n        /* \"#utility.yul\":8484:8549   */\n      tag_217\n        /* \"#utility.yul\":8542:8548   */\n      dup2\n        /* \"#utility.yul\":8534:8540   */\n      dup5\n        /* \"#utility.yul\":8528:8532   */\n      dup5\n        /* \"#utility.yul\":8484:8549   */\n      tag_109\n      jump\t// in\n    tag_217:\n        /* \"#utility.yul\":8419:8555   */\n      pop\n        /* \"#utility.yul\":8366:8555   */\n      pop\n      pop\n      jump\t// out\n        /* \"#utility.yul\":8561:8747   */\n    tag_112:\n        /* \"#utility.yul\":8621:8741   */\n    tag_219:\n        /* \"#utility.yul\":8638:8641   */\n      dup2\n        /* \"#utility.yul\":8631:8636   */\n      dup2\n        /* \"#utility.yul\":8628:8642   */\n      lt\n        /* \"#utility.yul\":8621:8741   */\n      iszero\n      tag_221\n      jumpi\n        /* \"#utility.yul\":8692:8731   */\n      tag_222\n        /* \"#utility.yul\":8729:8730   */\n      0x00\n        /* \"#utility.yul\":8722:8727   */\n      dup3\n        /* \"#utility.yul\":8692:8731   */\n      tag_111\n      jump\t// in\n    tag_222:\n        /* \"#utility.yul\":8665:8666   */\n      0x01\n        /* \"#utility.yul\":8658:8663   */\n      dup2\n        /* \"#utility.yul\":8654:8667   */\n      add\n        /* \"#utility.yul\":8645:8667   */\n      swap1\n      pop\n        /* \"#utility.yul\":8621:8741   */\n      jump(tag_219)\n    tag_221:\n        /* \"#utility.yul\":8561:8747   */\n      pop\n      pop\n      jump\t// out\n        /* \"#utility.yul\":8753:9296   */\n    tag_113:\n        /* \"#utility.yul\":8854:8856   */\n      0x1f\n        /* \"#utility.yul\":8849:8852   */\n      dup3\n        /* \"#utility.yul\":8846:8857   */\n      gt\n        /* \"#utility.yul\":8843:9289   */\n      iszero\n      tag_224\n      jumpi\n        /* \"#utility.yul\":8888:8926   */\n      tag_225\n        /* \"#utility.yul\":8920:8925   */\n      dup2\n        /* \"#utility.yul\":8888:8926   */\n      tag_102\n      jump\t// in\n    tag_225:\n        /* \"#utility.yul\":8972:9001   */\n      tag_226\n        /* \"#utility.yul\":8990:9000   */\n      dup5\n        /* \"#utility.yul\":8972:9001   */\n      tag_103\n      jump\t// in\n    tag_226:\n        /* \"#utility.yul\":8962:8970   */\n      dup2\n        /* \"#utility.yul\":8958:9002   */\n      add\n        /* \"#utility.yul\":9155:9157   */\n      0x20\n        /* \"#utility.yul\":9143:9153   */\n      dup6\n        /* \"#utility.yul\":9140:9158   */\n      lt\n        /* \"#utility.yul\":9137:9186   */\n      iszero\n      tag_227\n      jumpi\n        /* \"#utility.yul\":9176:9184   */\n      dup2\n        /* \"#utility.yul\":9161:9184   */\n      swap1\n      pop\n        /* \"#utility.yul\":9137:9186   */\n    tag_227:\n        /* \"#utility.yul\":9199:9279   */\n      tag_228\n        /* \"#utility.yul\":9255:9277   */\n      tag_229\n        /* \"#utility.yul\":9273:9276   */\n      dup6\n        /* \"#utility.yul\":9255:9277   */\n      tag_103\n      jump\t// in\n    tag_229:\n        /* \"#utility.yul\":9245:9253   */\n      dup4\n        /* \"#utility.yul\":9241:9278   */\n      add\n        /* \"#utility.yul\":9228:9239   */\n      dup3\n        /* \"#utility.yul\":9199:9279   */\n      tag_112\n      jump\t// in\n    tag_228:\n        /* \"#utility.yul\":8858:9289   */\n      pop\n      pop\n        /* \"#utility.yul\":8843:9289   */\n    tag_224:\n        /* \"#utility.yul\":8753:9296   */\n      pop\n      pop\n      pop\n      jump\t// out\n        /* \"#utility.yul\":9302:9419   */\n    tag_114:\n        /* \"#utility.yul\":9356:9364   */\n      0x00\n        /* \"#utility.yul\":9406:9411   */\n      dup3\n        /* \"#utility.yul\":9400:9404   */\n      dup3\n        /* \"#utility.yul\":9396:9412   */\n      shr\n        /* \"#utility.yul\":9375:9412   */\n      swap1\n      pop\n        /* \"#utility.yul\":9302:9419   */\n      swap3\n      swap2\n      pop\n      pop\n      jump\t// out\n        /* \"#utility.yul\":9425:9594   */\n    tag_115:\n        /* \"#utility.yul\":9469:9475   */\n      0x00\n        /* \"#utility.yul\":9502:9553   */\n      tag_232\n        /* \"#utility.yul\":9550:9551   */\n      0x00\n        /* \"#utility.yul\":9546:9552   */\n      not\n        /* \"#utility.yul\":9538:9543   */\n      dup5\n        /* \"#utility.yul\":9535:9536   */\n      0x08\n        /* \"#utility.yul\":9531:9544   */\n      mul\n        /* \"#utility.yul\":9502:9553   */\n      tag_114\n      jump\t// in\n    tag_232:\n        /* \"#utility.yul\":9498:9554   */\n      not\n        /* \"#utility.yul\":9583:9587   */\n      dup1\n        /* \"#utility.yul\":9577:9581   */\n      dup4\n        /* \"#utility.yul\":9573:9588   */\n      and\n        /* \"#utility.yul\":9563:9588   */\n      swap2\n      pop\n        /* \"#utility.yul\":9476:9594   */\n      pop\n        /* \"#utility.yul\":9425:9594   */\n      swap3\n      swap2\n      pop\n      pop\n      jump\t// out\n        /* \"#utility.yul\":9599:9894   */\n    tag_116:\n        /* \"#utility.yul\":9675:9679   */\n      0x00\n        /* \"#utility.yul\":9821:9850   */\n      tag_234\n        /* \"#utility.yul\":9846:9849   */\n      dup4\n        /* \"#utility.yul\":9840:9844   */\n      dup4\n        /* \"#utility.yul\":9821:9850   */\n      tag_115\n      jump\t// in\n    tag_234:\n        /* \"#utility.yul\":9813:9850   */\n      swap2\n      pop\n        /* \"#utility.yul\":9883:9886   */\n      dup3\n        /* \"#utility.yul\":9880:9881   */\n      0x02\n        /* \"#utility.yul\":9876:9887   */\n      mul\n        /* \"#utility.yul\":9870:9874   */\n      dup3\n        /* \"#utility.yul\":9867:9888   */\n      or\n        /* \"#utility.yul\":9859:9888   */\n      swap1\n      pop\n        /* \"#utility.yul\":9599:9894   */\n      swap3\n      swap2\n      pop\n      pop\n      jump\t// out\n        /* \"#utility.yul\":9899:11294   */\n    tag_63:\n        /* \"#utility.yul\":10016:10053   */\n      tag_236\n        /* \"#utility.yul\":10049:10052   */\n      dup3\n        /* \"#utility.yul\":10016:10053   */\n      tag_85\n      jump\t// in\n    tag_236:\n        /* \"#utility.yul\":10118:10136   */\n      0xffffffffffffffff\n        /* \"#utility.yul\":10110:10116   */\n      dup2\n        /* \"#utility.yul\":10107:10137   */\n      gt\n        /* \"#utility.yul\":10104:10160   */\n      iszero\n      tag_237\n      jumpi\n        /* \"#utility.yul\":10140:10158   */\n      tag_238\n      tag_93\n      jump\t// in\n    tag_238:\n        /* \"#utility.yul\":10104:10160   */\n    tag_237:\n        /* \"#utility.yul\":10184:10222   */\n      tag_239\n        /* \"#utility.yul\":10216:10220   */\n      dup3\n        /* \"#utility.yul\":10210:10221   */\n      sload\n        /* \"#utility.yul\":10184:10222   */\n      tag_26\n      jump\t// in\n    tag_239:\n        /* \"#utility.yul\":10269:10336   */\n      tag_240\n        /* \"#utility.yul\":10329:10335   */\n      dup3\n        /* \"#utility.yul\":10321:10327   */\n      dup3\n        /* \"#utility.yul\":10315:10319   */\n      dup6\n        /* \"#utility.yul\":10269:10336   */\n      tag_113\n      jump\t// in\n    tag_240:\n        /* \"#utility.yul\":10363:10364   */\n      0x00\n        /* \"#utility.yul\":10387:10391   */\n      0x20\n        /* \"#utility.yul\":10374:10391   */\n      swap1\n      pop\n        /* \"#utility.yul\":10419:10421   */\n      0x1f\n        /* \"#utility.yul\":10411:10417   */\n      dup4\n        /* \"#utility.yul\":10408:10422   */\n      gt\n        /* \"#utility.yul\":10436:10437   */\n      0x01\n        /* \"#utility.yul\":10431:11049   */\n      dup2\n      eq\n      tag_242\n      jumpi\n        /* \"#utility.yul\":11093:11094   */\n      0x00\n        /* \"#utility.yul\":11110:11116   */\n      dup5\n        /* \"#utility.yul\":11107:11184   */\n      iszero\n      tag_243\n      jumpi\n        /* \"#utility.yul\":11159:11168   */\n      dup3\n        /* \"#utility.yul\":11154:11157   */\n      dup8\n        /* \"#utility.yul\":11150:11169   */\n      add\n        /* \"#utility.yul\":11144:11170   */\n      mload\n        /* \"#utility.yul\":11135:11170   */\n      swap1\n      pop\n        /* \"#utility.yul\":11107:11184   */\n    tag_243:\n        /* \"#utility.yul\":11210:11277   */\n      tag_244\n        /* \"#utility.yul\":11270:11276   */\n      dup6\n        /* \"#utility.yul\":11263:11268   */\n      dup3\n        /* \"#utility.yul\":11210:11277   */\n      tag_116\n      jump\t// in\n    tag_244:\n        /* \"#utility.yul\":11204:11208   */\n      dup7\n        /* \"#utility.yul\":11197:11278   */\n      sstore\n        /* \"#utility.yul\":11066:11288   */\n      pop\n        /* \"#utility.yul\":10401:11288   */\n      jump(tag_241)\n        /* \"#utility.yul\":10431:11049   */\n    tag_242:\n        /* \"#utility.yul\":10483:10487   */\n      0x1f\n        /* \"#utility.yul\":10479:10488   */\n      not\n        /* \"#utility.yul\":10471:10477   */\n      dup5\n        /* \"#utility.yul\":10467:10489   */\n      and\n        /* \"#utility.yul\":10517:10554   */\n      tag_245\n        /* \"#utility.yul\":10549:10553   */\n      dup7\n        /* \"#utility.yul\":10517:10554   */\n      tag_102\n      jump\t// in\n    tag_245:\n        /* \"#utility.yul\":10576:10577   */\n      0x00\n        /* \"#utility.yul\":10590:10798   */\n    tag_246:\n        /* \"#utility.yul\":10604:10611   */\n      dup3\n        /* \"#utility.yul\":10601:10602   */\n      dup2\n        /* \"#utility.yul\":10598:10612   */\n      lt\n        /* \"#utility.yul\":10590:10798   */\n      iszero\n      tag_248\n      jumpi\n        /* \"#utility.yul\":10683:10692   */\n      dup5\n        /* \"#utility.yul\":10678:10681   */\n      dup10\n        /* \"#utility.yul\":10674:10693   */\n      add\n        /* \"#utility.yul\":10668:10694   */\n      mload\n        /* \"#utility.yul\":10660:10666   */\n      dup3\n        /* \"#utility.yul\":10653:10695   */\n      sstore\n        /* \"#utility.yul\":10734:10735   */\n      0x01\n        /* \"#utility.yul\":10726:10732   */\n      dup3\n        /* \"#utility.yul\":10722:10736   */\n      add\n        /* \"#utility.yul\":10712:10736   */\n      swap2\n      pop\n        /* \"#utility.yul\":10781:10783   */\n      0x20\n        /* \"#utility.yul\":10770:10779   */\n      dup6\n        /* \"#utility.yul\":10766:10784   */\n      add\n        /* \"#utility.yul\":10753:10784   */\n      swap5\n      pop\n        /* \"#utility.yul\":10627:10631   */\n      0x20\n        /* \"#utility.yul\":10624:10625   */\n      dup2\n        /* \"#utility.yul\":10620:10632   */\n      add\n        /* \"#utility.yul\":10615:10632   */\n      swap1\n      pop\n        /* \"#utility.yul\":10590:10798   */\n      jump(tag_246)\n    tag_248:\n        /* \"#utility.yul\":10826:10832   */\n      dup7\n        /* \"#utility.yul\":10817:10824   */\n      dup4\n        /* \"#utility.yul\":10814:10833   */\n      lt\n        /* \"#utility.yul\":10811:10990   */\n      iszero\n      tag_249\n      jumpi\n        /* \"#utility.yul\":10884:10893   */\n      dup5\n        /* \"#utility.yul\":10879:10882   */\n      dup10\n        /* \"#utility.yul\":10875:10894   */\n      add\n        /* \"#utility.yul\":10869:10895   */\n      mload\n        /* \"#utility.yul\":10927:10975   */\n      tag_250\n        /* \"#utility.yul\":10969:10973   */\n      0x1f\n        /* \"#utility.yul\":10961:10967   */\n      dup10\n        /* \"#utility.yul\":10957:10974   */\n      and\n        /* \"#utility.yul\":10946:10955   */\n      dup3\n        /* \"#utility.yul\":10927:10975   */\n      tag_115\n      jump\t// in\n    tag_250:\n        /* \"#utility.yul\":10919:10925   */\n      dup4\n        /* \"#utility.yul\":10912:10976   */\n      sstore\n        /* \"#utility.yul\":10834:10990   */\n      pop\n        /* \"#utility.yul\":10811:10990   */\n    tag_249:\n        /* \"#utility.yul\":11036:11037   */\n      0x01\n        /* \"#utility.yul\":11032:11033   */\n      0x02\n        /* \"#utility.yul\":11024:11030   */\n      dup9\n        /* \"#utility.yul\":11020:11034   */\n      mul\n        /* \"#utility.yul\":11016:11038   */\n      add\n        /* \"#utility.yul\":11010:11014   */\n      dup9\n        /* \"#utility.yul\":11003:11039   */\n      sstore\n        /* \"#utility.yul\":10438:11049   */\n      pop\n      pop\n      pop\n        /* \"#utility.yul\":10401:11288   */\n    tag_241:\n      pop\n        /* \"#utility.yul\":9991:11294   */\n      pop\n      pop\n      pop\n        /* \"#utility.yul\":9899:11294   */\n      pop\n      pop\n      jump\t// out\n        /* \"#utility.yul\":11300:11449   */\n    tag_117:\n        /* \"#utility.yul\":11349:11355   */\n      0x00\n        /* \"#utility.yul\":11383:11388   */\n      dup2\n        /* \"#utility.yul\":11377:11389   */\n      sload\n        /* \"#utility.yul\":11367:11389   */\n      swap1\n      pop\n        /* \"#utility.yul\":11409:11442   */\n      tag_252\n        /* \"#utility.yul\":11435:11441   */\n      dup2\n        /* \"#utility.yul\":11409:11442   */\n      tag_26\n      jump\t// in\n    tag_252:\n        /* \"#utility.yul\":11399:11442   */\n      swap1\n      pop\n        /* \"#utility.yul\":11300:11449   */\n      swap2\n      swap1\n      pop\n      jump\t// out\n        /* \"#utility.yul\":11455:12906   */\n    tag_74:\n        /* \"#utility.yul\":11566:11569   */\n      dup2\n        /* \"#utility.yul\":11560:11564   */\n      dup2\n        /* \"#utility.yul\":11557:11570   */\n      sub\n        /* \"#utility.yul\":11554:11580   */\n      tag_254\n      jumpi\n        /* \"#utility.yul\":11573:11578   */\n      pop\n      pop\n      jump(tag_253)\n        /* \"#utility.yul\":11554:11580   */\n    tag_254:\n        /* \"#utility.yul\":11604:11638   */\n      tag_255\n        /* \"#utility.yul\":11634:11637   */\n      dup3\n        /* \"#utility.yul\":11604:11638   */\n      tag_117\n      jump\t// in\n    tag_255:\n        /* \"#utility.yul\":11703:11721   */\n      0xffffffffffffffff\n        /* \"#utility.yul\":11695:11701   */\n      dup2\n        /* \"#utility.yul\":11692:11722   */\n      gt\n        /* \"#utility.yul\":11689:11745   */\n      iszero\n      tag_256\n      jumpi\n        /* \"#utility.yul\":11725:11743   */\n      tag_257\n      tag_93\n      jump\t// in\n    tag_257:\n        /* \"#utility.yul\":11689:11745   */\n    tag_256:\n        /* \"#utility.yul\":11769:11807   */\n      tag_258\n        /* \"#utility.yul\":11801:11805   */\n      dup3\n        /* \"#utility.yul\":11795:11806   */\n      sload\n        /* \"#utility.yul\":11769:11807   */\n      tag_26\n      jump\t// in\n    tag_258:\n        /* \"#utility.yul\":11854:11921   */\n      tag_259\n        /* \"#utility.yul\":11914:11920   */\n      dup3\n        /* \"#utility.yul\":11906:11912   */\n      dup3\n        /* \"#utility.yul\":11900:11904   */\n      dup6\n        /* \"#utility.yul\":11854:11921   */\n      tag_113\n      jump\t// in\n    tag_259:\n        /* \"#utility.yul\":11948:11949   */\n      0x00\n        /* \"#utility.yul\":11977:11979   */\n      0x1f\n        /* \"#utility.yul\":11969:11975   */\n      dup4\n        /* \"#utility.yul\":11966:11980   */\n      gt\n        /* \"#utility.yul\":11994:11995   */\n      0x01\n        /* \"#utility.yul\":11989:12661   */\n      dup2\n      eq\n      tag_261\n      jumpi\n        /* \"#utility.yul\":12705:12706   */\n      0x00\n        /* \"#utility.yul\":12722:12728   */\n      dup5\n        /* \"#utility.yul\":12719:12796   */\n      iszero\n      tag_262\n      jumpi\n        /* \"#utility.yul\":12771:12780   */\n      dup3\n        /* \"#utility.yul\":12766:12769   */\n      dup8\n        /* \"#utility.yul\":12762:12781   */\n      add\n        /* \"#utility.yul\":12756:12782   */\n      sload\n        /* \"#utility.yul\":12747:12782   */\n      swap1\n      pop\n        /* \"#utility.yul\":12719:12796   */\n    tag_262:\n        /* \"#utility.yul\":12822:12889   */\n      tag_263\n        /* \"#utility.yul\":12882:12888   */\n      dup6\n        /* \"#utility.yul\":12875:12880   */\n      dup3\n        /* \"#utility.yul\":12822:12889   */\n      tag_116\n      jump\t// in\n    tag_263:\n        /* \"#utility.yul\":12816:12820   */\n      dup7\n        /* \"#utility.yul\":12809:12890   */\n      sstore\n        /* \"#utility.yul\":12678:12900   */\n      pop\n        /* \"#utility.yul\":11959:12900   */\n      jump(tag_260)\n        /* \"#utility.yul\":11989:12661   */\n    tag_261:\n        /* \"#utility.yul\":12041:12045   */\n      0x1f\n        /* \"#utility.yul\":12037:12046   */\n      not\n        /* \"#utility.yul\":12029:12035   */\n      dup5\n        /* \"#utility.yul\":12025:12047   */\n      and\n        /* \"#utility.yul\":12067:12103   */\n      tag_264\n        /* \"#utility.yul\":12099:12102   */\n      dup8\n        /* \"#utility.yul\":12067:12103   */\n      tag_102\n      jump\t// in\n    tag_264:\n        /* \"#utility.yul\":12060:12103   */\n      swap7\n      pop\n        /* \"#utility.yul\":12130:12167   */\n      tag_265\n        /* \"#utility.yul\":12162:12166   */\n      dup7\n        /* \"#utility.yul\":12130:12167   */\n      tag_102\n      jump\t// in\n    tag_265:\n        /* \"#utility.yul\":12189:12190   */\n      0x00\n        /* \"#utility.yul\":12203:12410   */\n    tag_266:\n        /* \"#utility.yul\":12217:12224   */\n      dup3\n        /* \"#utility.yul\":12214:12215   */\n      dup2\n        /* \"#utility.yul\":12211:12225   */\n      lt\n        /* \"#utility.yul\":12203:12410   */\n      iszero\n      tag_268\n      jumpi\n        /* \"#utility.yul\":12296:12305   */\n      dup5\n        /* \"#utility.yul\":12291:12294   */\n      dup10\n        /* \"#utility.yul\":12287:12306   */\n      add\n        /* \"#utility.yul\":12281:12307   */\n      sload\n        /* \"#utility.yul\":12273:12279   */\n      dup3\n        /* \"#utility.yul\":12266:12308   */\n      sstore\n        /* \"#utility.yul\":12347:12348   */\n      0x01\n        /* \"#utility.yul\":12339:12345   */\n      dup3\n        /* \"#utility.yul\":12335:12349   */\n      add\n        /* \"#utility.yul\":12325:12349   */\n      swap2\n      pop\n        /* \"#utility.yul\":12394:12395   */\n      0x01\n        /* \"#utility.yul\":12383:12392   */\n      dup6\n        /* \"#utility.yul\":12379:12396   */\n      add\n        /* \"#utility.yul\":12366:12396   */\n      swap5\n      pop\n        /* \"#utility.yul\":12240:12244   */\n      0x20\n        /* \"#utility.yul\":12237:12238   */\n      dup2\n        /* \"#utility.yul\":12233:12245   */\n      add\n        /* \"#utility.yul\":12228:12245   */\n      swap1\n      pop\n        /* \"#utility.yul\":12203:12410   */\n      jump(tag_266)\n    tag_268:\n        /* \"#utility.yul\":12438:12444   */\n      dup7\n        /* \"#utility.yul\":12429:12436   */\n      dup4\n        /* \"#utility.yul\":12426:12445   */\n      lt\n        /* \"#utility.yul\":12423:12602   */\n      iszero\n      tag_269\n      jumpi\n        /* \"#utility.yul\":12496:12505   */\n      dup5\n        /* \"#utility.yul\":12491:12494   */\n      dup10\n        /* \"#utility.yul\":12487:12506   */\n      add\n        /* \"#utility.yul\":12481:12507   */\n      sload\n        /* \"#utility.yul\":12539:12587   */\n      tag_270\n        /* \"#utility.yul\":12581:12585   */\n      0x1f\n        /* \"#utility.yul\":12573:12579   */\n      dup10\n        /* \"#utility.yul\":12569:12586   */\n      and\n        /* \"#utility.yul\":12558:12567   */\n      dup3\n        /* \"#utility.yul\":12539:12587   */\n      tag_115\n      jump\t// in\n    tag_270:\n        /* \"#utility.yul\":12531:12537   */\n      dup4\n        /* \"#utility.yul\":12524:12588   */\n      sstore\n        /* \"#utility.yul\":12446:12602   */\n      pop\n        /* \"#utility.yul\":12423:12602   */\n    tag_269:\n        /* \"#utility.yul\":12648:12649   */\n      0x01\n        /* \"#utility.yul\":12644:12645   */\n      0x02\n        /* \"#utility.yul\":12636:12642   */\n      dup9\n        /* \"#utility.yul\":12632:12646   */\n      mul\n        /* \"#utility.yul\":12628:12650   */\n      add\n        /* \"#utility.yul\":12622:12626   */\n      dup9\n        /* \"#utility.yul\":12615:12651   */\n      sstore\n        /* \"#utility.yul\":11996:12661   */\n      pop\n      pop\n      pop\n        /* \"#utility.yul\":11959:12900   */\n    tag_260:\n      pop\n        /* \"#utility.yul\":11544:12906   */\n      pop\n      pop\n      pop\n        /* \"#utility.yul\":11455:12906   */\n      pop\n      pop\n    tag_253:\n      jump\t// out\n\n    auxdata: 0xa2646970667358221220d822ee004256a818a89a7794c09983a6a31d45243d78febb3e97946c46a9ff9a64736f6c63430008120033\n}\n",
				"bytecode": {
					"linkReferences": {},
					"object": "608060405234801561001057600080fd5b50610c0f806100206000396000f3fe608060405234801561001057600080fd5b50600436106100415760003560e01c806362fb6fe1146100465780639b247d4b14610077578063e338ef5414610093575b600080fd5b610060600480360381019061005b9190610485565b6100af565b60405161006e929190610551565b60405180910390f35b610091600480360381019061008c91906106b6565b6101ce565b005b6100ad60048036038101906100a891906106ff565b610353565b005b6060600080600084815481106100c8576100c761073f565b5b90600052602060002090600302016040518060600160405290816000820180546100f19061079d565b80601f016020809104026020016040519081016040528092919081815260200182805461011d9061079d565b801561016a5780601f1061013f5761010080835404028352916020019161016a565b820191906000526020600020905b81548152906001019060200180831161014d57829003601f168201915b50505050508152602001600182015481526020016002820160009054906101000a900460ff1660028111156101a2576101a16107ce565b5b60028111156101b4576101b36107ce565b5b815250509050806000015181602001519250925050915091565b6101d6610408565b8181600001819052506014426101ec919061082c565b8160200181815250506000600442610204919061082c565b0361023f57600281604001906002811115610222576102216107ce565b5b90816002811115610236576102356107ce565b5b815250506102d1565b600160044261024e919061082c565b036102895760008160400190600281111561026c5761026b6107ce565b5b908160028111156102805761027f6107ce565b5b815250506102d0565b6002600442610298919061082c565b036102cf576001816040019060028111156102b6576102b56107ce565b5b908160028111156102ca576102c96107ce565b5b815250505b5b5b600081908060018154018082558091505060019003906000526020600020906003020160009091909190915060008201518160000190816103129190610a09565b506020820151816001015560408201518160020160006101000a81548160ff02191690836002811115610348576103476107ce565b5b021790555050505050565b60008083815481106103685761036761073f565b5b9060005260206000209060030201905081816001018190555080600084815481106103965761039561073f565b5b9060005260206000209060030201600082018160000190816103b89190610af1565b50600182015481600101556002820160009054906101000a900460ff168160020160006101000a81548160ff021916908360028111156103fb576103fa6107ce565b5b0217905550905050505050565b6040518060600160405280606081526020016000815260200160006002811115610435576104346107ce565b5b81525090565b6000604051905090565b600080fd5b600080fd5b6000819050919050565b6104628161044f565b811461046d57600080fd5b50565b60008135905061047f81610459565b92915050565b60006020828403121561049b5761049a610445565b5b60006104a984828501610470565b91505092915050565b600081519050919050565b600082825260208201905092915050565b60005b838110156104ec5780820151818401526020810190506104d1565b60008484015250505050565b6000601f19601f8301169050919050565b6000610514826104b2565b61051e81856104bd565b935061052e8185602086016104ce565b610537816104f8565b840191505092915050565b61054b8161044f565b82525050565b6000604082019050818103600083015261056b8185610509565b905061057a6020830184610542565b9392505050565b600080fd5b600080fd5b7f4e487b7100000000000000000000000000000000000000000000000000000000600052604160045260246000fd5b6105c3826104f8565b810181811067ffffffffffffffff821117156105e2576105e161058b565b5b80604052505050565b60006105f561043b565b905061060182826105ba565b919050565b600067ffffffffffffffff8211156106215761062061058b565b5b61062a826104f8565b9050602081019050919050565b82818337600083830152505050565b600061065961065484610606565b6105eb565b90508281526020810184848401111561067557610674610586565b5b610680848285610637565b509392505050565b600082601f83011261069d5761069c610581565b5b81356106ad848260208601610646565b91505092915050565b6000602082840312156106cc576106cb610445565b5b600082013567ffffffffffffffff8111156106ea576106e961044a565b5b6106f684828501610688565b91505092915050565b6000806040838503121561071657610715610445565b5b600061072485828601610470565b925050602061073585828601610470565b9150509250929050565b7f4e487b7100000000000000000000000000000000000000000000000000000000600052603260045260246000fd5b7f4e487b7100000000000000000000000000000000000000000000000000000000600052602260045260246000fd5b600060028204905060018216806107b557607f821691505b6020821081036107c8576107c761076e565b5b50919050565b7f4e487b7100000000000000000000000000000000000000000000000000000000600052602160045260246000fd5b7f4e487b7100000000000000000000000000000000000000000000000000000000600052601260045260246000fd5b60006108378261044f565b91506108428361044f565b925082610852576108516107fd565b5b828206905092915050565b60008190508160005260206000209050919050565b60006020601f8301049050919050565b600082821b905092915050565b6000600883026108bf7fffffffffffffffffffffffffffffffffffffffffffffffffffffffffffffffff82610882565b6108c98683610882565b95508019841693508086168417925050509392505050565b6000819050919050565b60006109066109016108fc8461044f565b6108e1565b61044f565b9050919050565b6000819050919050565b610920836108eb565b61093461092c8261090d565b84845461088f565b825550505050565b600090565b61094961093c565b610954818484610917565b505050565b5b818110156109785761096d600082610941565b60018101905061095a565b5050565b601f8211156109bd5761098e8161085d565b61099784610872565b810160208510156109a6578190505b6109ba6109b285610872565b830182610959565b50505b505050565b600082821c905092915050565b60006109e0600019846008026109c2565b1980831691505092915050565b60006109f983836109cf565b9150826002028217905092915050565b610a12826104b2565b67ffffffffffffffff811115610a2b57610a2a61058b565b5b610a35825461079d565b610a4082828561097c565b600060209050601f831160018114610a735760008415610a61578287015190505b610a6b85826109ed565b865550610ad3565b601f198416610a818661085d565b60005b82811015610aa957848901518255600182019150602085019450602081019050610a84565b86831015610ac65784890151610ac2601f8916826109cf565b8355505b6001600288020188555050505b505050505050565b600081549050610aea8161079d565b9050919050565b818103610aff575050610bd7565b610b0882610adb565b67ffffffffffffffff811115610b2157610b2061058b565b5b610b2b825461079d565b610b3682828561097c565b6000601f831160018114610b655760008415610b53578287015490505b610b5d85826109ed565b865550610bd0565b601f198416610b738761085d565b9650610b7e8661085d565b60005b82811015610ba657848901548255600182019150600185019450602081019050610b81565b86831015610bc35784890154610bbf601f8916826109cf565b8355505b6001600288020188555050505b5050505050505b56fea2646970667358221220d822ee004256a818a89a7794c09983a6a31d45243d78febb3e97946c46a9ff9a64736f6c63430008120033",
					"opcodes": "PUSH1 0x80 PUSH1 0x40 MSTORE CALLVALUE DUP1 ISZERO PUSH2 0x10 JUMPI PUSH1 0x0 DUP1 REVERT JUMPDEST POP PUSH2 0xC0F DUP1 PUSH2 0x20 PUSH1 0x0 CODECOPY PUSH1 0x0 RETURN INVALID PUSH1 0x80 PUSH1 0x40 MSTORE CALLVALUE DUP1 ISZERO PUSH2 0x10 JUMPI PUSH1 0x0 DUP1 REVERT JUMPDEST POP PUSH1 0x4 CALLDATASIZE LT PUSH2 0x41 JUMPI PUSH1 0x0 CALLDATALOAD PUSH1 0xE0 SHR DUP1 PUSH4 0x62FB6FE1 EQ PUSH2 0x46 JUMPI DUP1 PUSH4 0x9B247D4B EQ PUSH2 0x77 JUMPI DUP1 PUSH4 0xE338EF54 EQ PUSH2 0x93 JUMPI JUMPDEST PUSH1 0x0 DUP1 REVERT JUMPDEST PUSH2 0x60 PUSH1 0x4 DUP1 CALLDATASIZE SUB DUP2 ADD SWAP1 PUSH2 0x5B SWAP2 SWAP1 PUSH2 0x485 JUMP JUMPDEST PUSH2 0xAF JUMP JUMPDEST PUSH1 0x40 MLOAD PUSH2 0x6E SWAP3 SWAP2 SWAP1 PUSH2 0x551 JUMP JUMPDEST PUSH1 0x40 MLOAD DUP1 SWAP2 SUB SWAP1 RETURN JUMPDEST PUSH2 0x91 PUSH1 0x4 DUP1 CALLDATASIZE SUB DUP2 ADD SWAP1 PUSH2 0x8C SWAP2 SWAP1 PUSH2 0x6B6 JUMP JUMPDEST PUSH2 0x1CE JUMP JUMPDEST STOP JUMPDEST PUSH2 0xAD PUSH1 0x4 DUP1 CALLDATASIZE SUB DUP2 ADD SWAP1 PUSH2 0xA8 SWAP2 SWAP1 PUSH2 0x6FF JUMP JUMPDEST PUSH2 0x353 JUMP JUMPDEST STOP JUMPDEST PUSH1 0x60 PUSH1 0x0 DUP1 PUSH1 0x0 DUP5 DUP2 SLOAD DUP2 LT PUSH2 0xC8 JUMPI PUSH2 0xC7 PUSH2 0x73F JUMP JUMPDEST JUMPDEST SWAP1 PUSH1 0x0 MSTORE PUSH1 0x20 PUSH1 0x0 KECCAK256 SWAP1 PUSH1 0x3 MUL ADD PUSH1 0x40 MLOAD DUP1 PUSH1 0x60 ADD PUSH1 0x40 MSTORE SWAP1 DUP2 PUSH1 0x0 DUP3 ADD DUP1 SLOAD PUSH2 0xF1 SWAP1 PUSH2 0x79D JUMP JUMPDEST DUP1 PUSH1 0x1F ADD PUSH1 0x20 DUP1 SWAP2 DIV MUL PUSH1 0x20 ADD PUSH1 0x40 MLOAD SWAP1 DUP2 ADD PUSH1 0x40 MSTORE DUP1 SWAP3 SWAP2 SWAP1 DUP2 DUP2 MSTORE PUSH1 0x20 ADD DUP3 DUP1 SLOAD PUSH2 0x11D SWAP1 PUSH2 0x79D JUMP JUMPDEST DUP1 ISZERO PUSH2 0x16A JUMPI DUP1 PUSH1 0x1F LT PUSH2 0x13F JUMPI PUSH2 0x100 DUP1 DUP4 SLOAD DIV MUL DUP4 MSTORE SWAP2 PUSH1 0x20 ADD SWAP2 PUSH2 0x16A JUMP JUMPDEST DUP3 ADD SWAP2 SWAP1 PUSH1 0x0 MSTORE PUSH1 0x20 PUSH1 0x0 KECCAK256 SWAP1 JUMPDEST DUP2 SLOAD DUP2 MSTORE SWAP1 PUSH1 0x1 ADD SWAP1 PUSH1 0x20 ADD DUP1 DUP4 GT PUSH2 0x14D JUMPI DUP3 SWAP1 SUB PUSH1 0x1F AND DUP3 ADD SWAP2 JUMPDEST POP POP POP POP POP DUP2 MSTORE PUSH1 0x20 ADD PUSH1 0x1 DUP3 ADD SLOAD DUP2 MSTORE PUSH1 0x20 ADD PUSH1 0x2 DUP3 ADD PUSH1 0x0 SWAP1 SLOAD SWAP1 PUSH2 0x100 EXP SWAP1 DIV PUSH1 0xFF AND PUSH1 0x2 DUP2 GT ISZERO PUSH2 0x1A2 JUMPI PUSH2 0x1A1 PUSH2 0x7CE JUMP JUMPDEST JUMPDEST PUSH1 0x2 DUP2 GT ISZERO PUSH2 0x1B4 JUMPI PUSH2 0x1B3 PUSH2 0x7CE JUMP JUMPDEST JUMPDEST DUP2 MSTORE POP POP SWAP1 POP DUP1 PUSH1 0x0 ADD MLOAD DUP2 PUSH1 0x20 ADD MLOAD SWAP3 POP SWAP3 POP POP SWAP2 POP SWAP2 JUMP JUMPDEST PUSH2 0x1D6 PUSH2 0x408 JUMP JUMPDEST DUP2 DUP2 PUSH1 0x0 ADD DUP2 SWAP1 MSTORE POP PUSH1 0x14 TIMESTAMP PUSH2 0x1EC SWAP2 SWAP1 PUSH2 0x82C JUMP JUMPDEST DUP2 PUSH1 0x20 ADD DUP2 DUP2 MSTORE POP POP PUSH1 0x0 PUSH1 0x4 TIMESTAMP PUSH2 0x204 SWAP2 SWAP1 PUSH2 0x82C JUMP JUMPDEST SUB PUSH2 0x23F JUMPI PUSH1 0x2 DUP2 PUSH1 0x40 ADD SWAP1 PUSH1 0x2 DUP2 GT ISZERO PUSH2 0x222 JUMPI PUSH2 0x221 PUSH2 0x7CE JUMP JUMPDEST JUMPDEST SWAP1 DUP2 PUSH1 0x2 DUP2 GT ISZERO PUSH2 0x236 JUMPI PUSH2 0x235 PUSH2 0x7CE JUMP JUMPDEST JUMPDEST DUP2 MSTORE POP POP PUSH2 0x2D1 JUMP JUMPDEST PUSH1 0x1 PUSH1 0x4 TIMESTAMP PUSH2 0x24E SWAP2 SWAP1 PUSH2 0x82C JUMP JUMPDEST SUB PUSH2 0x289 JUMPI PUSH1 0x0 DUP2 PUSH1 0x40 ADD SWAP1 PUSH1 0x2 DUP2 GT ISZERO PUSH2 0x26C JUMPI PUSH2 0x26B PUSH2 0x7CE JUMP JUMPDEST JUMPDEST SWAP1 DUP2 PUSH1 0x2 DUP2 GT ISZERO PUSH2 0x280 JUMPI PUSH2 0x27F PUSH2 0x7CE JUMP JUMPDEST JUMPDEST DUP2 MSTORE POP POP PUSH2 0x2D0 JUMP JUMPDEST PUSH1 0x2 PUSH1 0x4 TIMESTAMP PUSH2 0x298 SWAP2 SWAP1 PUSH2 0x82C JUMP JUMPDEST SUB PUSH2 0x2CF JUMPI PUSH1 0x1 DUP2 PUSH1 0x40 ADD SWAP1 PUSH1 0x2 DUP2 GT ISZERO PUSH2 0x2B6 JUMPI PUSH2 0x2B5 PUSH2 0x7CE JUMP JUMPDEST JUMPDEST SWAP1 DUP2 PUSH1 0x2 DUP2 GT ISZERO PUSH2 0x2CA JUMPI PUSH2 0x2C9 PUSH2 0x7CE JUMP JUMPDEST JUMPDEST DUP2 MSTORE POP POP JUMPDEST JUMPDEST JUMPDEST PUSH1 0x0 DUP2 SWAP1 DUP1 PUSH1 0x1 DUP2 SLOAD ADD DUP1 DUP3 SSTORE DUP1 SWAP2 POP POP PUSH1 0x1 SWAP1 SUB SWAP1 PUSH1 0x0 MSTORE PUSH1 0x20 PUSH1 0x0 KECCAK256 SWAP1 PUSH1 0x3 MUL ADD PUSH1 0x0 SWAP1 SWAP2 SWAP1 SWAP2 SWAP1 SWAP2 POP PUSH1 0x0 DUP3 ADD MLOAD DUP2 PUSH1 0x0 ADD SWAP1 DUP2 PUSH2 0x312 SWAP2 SWAP1 PUSH2 0xA09 JUMP JUMPDEST POP PUSH1 0x20 DUP3 ADD MLOAD DUP2 PUSH1 0x1 ADD SSTORE PUSH1 0x40 DUP3 ADD MLOAD DUP2 PUSH1 0x2 ADD PUSH1 0x0 PUSH2 0x100 EXP DUP2 SLOAD DUP2 PUSH1 0xFF MUL NOT AND SWAP1 DUP4 PUSH1 0x2 DUP2 GT ISZERO PUSH2 0x348 JUMPI PUSH2 0x347 PUSH2 0x7CE JUMP JUMPDEST JUMPDEST MUL OR SWAP1 SSTORE POP POP POP POP POP JUMP JUMPDEST PUSH1 0x0 DUP1 DUP4 DUP2 SLOAD DUP2 LT PUSH2 0x368 JUMPI PUSH2 0x367 PUSH2 0x73F JUMP JUMPDEST JUMPDEST SWAP1 PUSH1 0x0 MSTORE PUSH1 0x20 PUSH1 0x0 KECCAK256 SWAP1 PUSH1 0x3 MUL ADD SWAP1 POP DUP2 DUP2 PUSH1 0x1 ADD DUP2 SWAP1 SSTORE POP DUP1 PUSH1 0x0 DUP5 DUP2 SLOAD DUP2 LT PUSH2 0x396 JUMPI PUSH2 0x395 PUSH2 0x73F JUMP JUMPDEST JUMPDEST SWAP1 PUSH1 0x0 MSTORE PUSH1 0x20 PUSH1 0x0 KECCAK256 SWAP1 PUSH1 0x3 MUL ADD PUSH1 0x0 DUP3 ADD DUP2 PUSH1 0x0 ADD SWAP1 DUP2 PUSH2 0x3B8 SWAP2 SWAP1 PUSH2 0xAF1 JUMP JUMPDEST POP PUSH1 0x1 DUP3 ADD SLOAD DUP2 PUSH1 0x1 ADD SSTORE PUSH1 0x2 DUP3 ADD PUSH1 0x0 SWAP1 SLOAD SWAP1 PUSH2 0x100 EXP SWAP1 DIV PUSH1 0xFF AND DUP2 PUSH1 0x2 ADD PUSH1 0x0 PUSH2 0x100 EXP DUP2 SLOAD DUP2 PUSH1 0xFF MUL NOT AND SWAP1 DUP4 PUSH1 0x2 DUP2 GT ISZERO PUSH2 0x3FB JUMPI PUSH2 0x3FA PUSH2 0x7CE JUMP JUMPDEST JUMPDEST MUL OR SWAP1 SSTORE POP SWAP1 POP POP POP POP POP JUMP JUMPDEST PUSH1 0x40 MLOAD DUP1 PUSH1 0x60 ADD PUSH1 0x40 MSTORE DUP1 PUSH1 0x60 DUP2 MSTORE PUSH1 0x20 ADD PUSH1 0x0 DUP2 MSTORE PUSH1 0x20 ADD PUSH1 0x0 PUSH1 0x2 DUP2 GT ISZERO PUSH2 0x435 JUMPI PUSH2 0x434 PUSH2 0x7CE JUMP JUMPDEST JUMPDEST DUP2 MSTORE POP SWAP1 JUMP JUMPDEST PUSH1 0x0 PUSH1 0x40 MLOAD SWAP1 POP SWAP1 JUMP JUMPDEST PUSH1 0x0 DUP1 REVERT JUMPDEST PUSH1 0x0 DUP1 REVERT JUMPDEST PUSH1 0x0 DUP2 SWAP1 POP SWAP2 SWAP1 POP JUMP JUMPDEST PUSH2 0x462 DUP2 PUSH2 0x44F JUMP JUMPDEST DUP2 EQ PUSH2 0x46D JUMPI PUSH1 0x0 DUP1 REVERT JUMPDEST POP JUMP JUMPDEST PUSH1 0x0 DUP2 CALLDATALOAD SWAP1 POP PUSH2 0x47F DUP2 PUSH2 0x459 JUMP JUMPDEST SWAP3 SWAP2 POP POP JUMP JUMPDEST PUSH1 0x0 PUSH1 0x20 DUP3 DUP5 SUB SLT ISZERO PUSH2 0x49B JUMPI PUSH2 0x49A PUSH2 0x445 JUMP JUMPDEST JUMPDEST PUSH1 0x0 PUSH2 0x4A9 DUP5 DUP3 DUP6 ADD PUSH2 0x470 JUMP JUMPDEST SWAP2 POP POP SWAP3 SWAP2 POP POP JUMP JUMPDEST PUSH1 0x0 DUP2 MLOAD SWAP1 POP SWAP2 SWAP1 POP JUMP JUMPDEST PUSH1 0x0 DUP3 DUP3 MSTORE PUSH1 0x20 DUP3 ADD SWAP1 POP SWAP3 SWAP2 POP POP JUMP JUMPDEST PUSH1 0x0 JUMPDEST DUP4 DUP2 LT ISZERO PUSH2 0x4EC JUMPI DUP1 DUP3 ADD MLOAD DUP2 DUP5 ADD MSTORE PUSH1 0x20 DUP2 ADD SWAP1 POP PUSH2 0x4D1 JUMP JUMPDEST PUSH1 0x0 DUP5 DUP5 ADD MSTORE POP POP POP POP JUMP JUMPDEST PUSH1 0x0 PUSH1 0x1F NOT PUSH1 0x1F DUP4 ADD AND SWAP1 POP SWAP2 SWAP1 POP JUMP JUMPDEST PUSH1 0x0 PUSH2 0x514 DUP3 PUSH2 0x4B2 JUMP JUMPDEST PUSH2 0x51E DUP2 DUP6 PUSH2 0x4BD JUMP JUMPDEST SWAP4 POP PUSH2 0x52E DUP2 DUP6 PUSH1 0x20 DUP7 ADD PUSH2 0x4CE JUMP JUMPDEST PUSH2 0x537 DUP2 PUSH2 0x4F8 JUMP JUMPDEST DUP5 ADD SWAP2 POP POP SWAP3 SWAP2 POP POP JUMP JUMPDEST PUSH2 0x54B DUP2 PUSH2 0x44F JUMP JUMPDEST DUP3 MSTORE POP POP JUMP JUMPDEST PUSH1 0x0 PUSH1 0x40 DUP3 ADD SWAP1 POP DUP2 DUP2 SUB PUSH1 0x0 DUP4 ADD MSTORE PUSH2 0x56B DUP2 DUP6 PUSH2 0x509 JUMP JUMPDEST SWAP1 POP PUSH2 0x57A PUSH1 0x20 DUP4 ADD DUP5 PUSH2 0x542 JUMP JUMPDEST SWAP4 SWAP3 POP POP POP JUMP JUMPDEST PUSH1 0x0 DUP1 REVERT JUMPDEST PUSH1 0x0 DUP1 REVERT JUMPDEST PUSH32 0x4E487B7100000000000000000000000000000000000000000000000000000000 PUSH1 0x0 MSTORE PUSH1 0x41 PUSH1 0x4 MSTORE PUSH1 0x24 PUSH1 0x0 REVERT JUMPDEST PUSH2 0x5C3 DUP3 PUSH2 0x4F8 JUMP JUMPDEST DUP2 ADD DUP2 DUP2 LT PUSH8 0xFFFFFFFFFFFFFFFF DUP3 GT OR ISZERO PUSH2 0x5E2 JUMPI PUSH2 0x5E1 PUSH2 0x58B JUMP JUMPDEST JUMPDEST DUP1 PUSH1 0x40 MSTORE POP POP POP JUMP JUMPDEST PUSH1 0x0 PUSH2 0x5F5 PUSH2 0x43B JUMP JUMPDEST SWAP1 POP PUSH2 0x601 DUP3 DUP3 PUSH2 0x5BA JUMP JUMPDEST SWAP2 SWAP1 POP JUMP JUMPDEST PUSH1 0x0 PUSH8 0xFFFFFFFFFFFFFFFF DUP3 GT ISZERO PUSH2 0x621 JUMPI PUSH2 0x620 PUSH2 0x58B JUMP JUMPDEST JUMPDEST PUSH2 0x62A DUP3 PUSH2 0x4F8 JUMP JUMPDEST SWAP1 POP PUSH1 0x20 DUP2 ADD SWAP1 POP SWAP2 SWAP1 POP JUMP JUMPDEST DUP3 DUP2 DUP4 CALLDATACOPY PUSH1 0x0 DUP4 DUP4 ADD MSTORE POP POP POP JUMP JUMPDEST PUSH1 0x0 PUSH2 0x659 PUSH2 0x654 DUP5 PUSH2 0x606 JUMP JUMPDEST PUSH2 0x5EB JUMP JUMPDEST SWAP1 POP DUP3 DUP2 MSTORE PUSH1 0x20 DUP2 ADD DUP5 DUP5 DUP5 ADD GT ISZERO PUSH2 0x675 JUMPI PUSH2 0x674 PUSH2 0x586 JUMP JUMPDEST JUMPDEST PUSH2 0x680 DUP5 DUP3 DUP6 PUSH2 0x637 JUMP JUMPDEST POP SWAP4 SWAP3 POP POP POP JUMP JUMPDEST PUSH1 0x0 DUP3 PUSH1 0x1F DUP4 ADD SLT PUSH2 0x69D JUMPI PUSH2 0x69C PUSH2 0x581 JUMP JUMPDEST JUMPDEST DUP2 CALLDATALOAD PUSH2 0x6AD DUP5 DUP3 PUSH1 0x20 DUP7 ADD PUSH2 0x646 JUMP JUMPDEST SWAP2 POP POP SWAP3 SWAP2 POP POP JUMP JUMPDEST PUSH1 0x0 PUSH1 0x20 DUP3 DUP5 SUB SLT ISZERO PUSH2 0x6CC JUMPI PUSH2 0x6CB PUSH2 0x445 JUMP JUMPDEST JUMPDEST PUSH1 0x0 DUP3 ADD CALLDATALOAD PUSH8 0xFFFFFFFFFFFFFFFF DUP2 GT ISZERO PUSH2 0x6EA JUMPI PUSH2 0x6E9 PUSH2 0x44A JUMP JUMPDEST JUMPDEST PUSH2 0x6F6 DUP5 DUP3 DUP6 ADD PUSH2 0x688 JUMP JUMPDEST SWAP2 POP POP SWAP3 SWAP2 POP POP JUMP JUMPDEST PUSH1 0x0 DUP1 PUSH1 0x40 DUP4 DUP6 SUB SLT ISZERO PUSH2 0x716 JUMPI PUSH2 0x715 PUSH2 0x445 JUMP JUMPDEST JUMPDEST PUSH1 0x0 PUSH2 0x724 DUP6 DUP3 DUP7 ADD PUSH2 0x470 JUMP JUMPDEST SWAP3 POP POP PUSH1 0x20 PUSH2 0x735 DUP6 DUP3 DUP7 ADD PUSH2 0x470 JUMP JUMPDEST SWAP2 POP POP SWAP3 POP SWAP3 SWAP1 POP JUMP JUMPDEST PUSH32 0x4E487B7100000000000000000000000000000000000000000000000000000000 PUSH1 0x0 MSTORE PUSH1 0x32 PUSH1 0x4 MSTORE PUSH1 0x24 PUSH1 0x0 REVERT JUMPDEST PUSH32 0x4E487B7100000000000000000000000000000000000000000000000000000000 PUSH1 0x0 MSTORE PUSH1 0x22 PUSH1 0x4 MSTORE PUSH1 0x24 PUSH1 0x0 REVERT JUMPDEST PUSH1 0x0 PUSH1 0x2 DUP3 DIV SWAP1 POP PUSH1 0x1 DUP3 AND DUP1 PUSH2 0x7B5 JUMPI PUSH1 0x7F DUP3 AND SWAP2 POP JUMPDEST PUSH1 0x20 DUP3 LT DUP2 SUB PUSH2 0x7C8 JUMPI PUSH2 0x7C7 PUSH2 0x76E JUMP JUMPDEST JUMPDEST POP SWAP2 SWAP1 POP JUMP JUMPDEST PUSH32 0x4E487B7100000000000000000000000000000000000000000000000000000000 PUSH1 0x0 MSTORE PUSH1 0x21 PUSH1 0x4 MSTORE PUSH1 0x24 PUSH1 0x0 REVERT JUMPDEST PUSH32 0x4E487B7100000000000000000000000000000000000000000000000000000000 PUSH1 0x0 MSTORE PUSH1 0x12 PUSH1 0x4 MSTORE PUSH1 0x24 PUSH1 0x0 REVERT JUMPDEST PUSH1 0x0 PUSH2 0x837 DUP3 PUSH2 0x44F JUMP JUMPDEST SWAP2 POP PUSH2 0x842 DUP4 PUSH2 0x44F JUMP JUMPDEST SWAP3 POP DUP3 PUSH2 0x852 JUMPI PUSH2 0x851 PUSH2 0x7FD JUMP JUMPDEST JUMPDEST DUP3 DUP3 MOD SWAP1 POP SWAP3 SWAP2 POP POP JUMP JUMPDEST PUSH1 0x0 DUP2 SWAP1 POP DUP2 PUSH1 0x0 MSTORE PUSH1 0x20 PUSH1 0x0 KECCAK256 SWAP1 POP SWAP2 SWAP1 POP JUMP JUMPDEST PUSH1 0x0 PUSH1 0x20 PUSH1 0x1F DUP4 ADD DIV SWAP1 POP SWAP2 SWAP1 POP JUMP JUMPDEST PUSH1 0x0 DUP3 DUP3 SHL SWAP1 POP SWAP3 SWAP2 POP POP JUMP JUMPDEST PUSH1 0x0 PUSH1 0x8 DUP4 MUL PUSH2 0x8BF PUSH32 0xFFFFFFFFFFFFFFFFFFFFFFFFFFFFFFFFFFFFFFFFFFFFFFFFFFFFFFFFFFFFFFFF DUP3 PUSH2 0x882 JUMP JUMPDEST PUSH2 0x8C9 DUP7 DUP4 PUSH2 0x882 JUMP JUMPDEST SWAP6 POP DUP1 NOT DUP5 AND SWAP4 POP DUP1 DUP7 AND DUP5 OR SWAP3 POP POP POP SWAP4 SWAP3 POP POP POP JUMP JUMPDEST PUSH1 0x0 DUP2 SWAP1 POP SWAP2 SWAP1 POP JUMP JUMPDEST PUSH1 0x0 PUSH2 0x906 PUSH2 0x901 PUSH2 0x8FC DUP5 PUSH2 0x44F JUMP JUMPDEST PUSH2 0x8E1 JUMP JUMPDEST PUSH2 0x44F JUMP JUMPDEST SWAP1 POP SWAP2 SWAP1 POP JUMP JUMPDEST PUSH1 0x0 DUP2 SWAP1 POP SWAP2 SWAP1 POP JUMP JUMPDEST PUSH2 0x920 DUP4 PUSH2 0x8EB JUMP JUMPDEST PUSH2 0x934 PUSH2 0x92C DUP3 PUSH2 0x90D JUMP JUMPDEST DUP5 DUP5 SLOAD PUSH2 0x88F JUMP JUMPDEST DUP3 SSTORE POP POP POP POP JUMP JUMPDEST PUSH1 0x0 SWAP1 JUMP JUMPDEST PUSH2 0x949 PUSH2 0x93C JUMP JUMPDEST PUSH2 0x954 DUP2 DUP5 DUP5 PUSH2 0x917 JUMP JUMPDEST POP POP POP JUMP JUMPDEST JUMPDEST DUP2 DUP2 LT ISZERO PUSH2 0x978 JUMPI PUSH2 0x96D PUSH1 0x0 DUP3 PUSH2 0x941 JUMP JUMPDEST PUSH1 0x1 DUP2 ADD SWAP1 POP PUSH2 0x95A JUMP JUMPDEST POP POP JUMP JUMPDEST PUSH1 0x1F DUP3 GT ISZERO PUSH2 0x9BD JUMPI PUSH2 0x98E DUP2 PUSH2 0x85D JUMP JUMPDEST PUSH2 0x997 DUP5 PUSH2 0x872 JUMP JUMPDEST DUP2 ADD PUSH1 0x20 DUP6 LT ISZERO PUSH2 0x9A6 JUMPI DUP2 SWAP1 POP JUMPDEST PUSH2 0x9BA PUSH2 0x9B2 DUP6 PUSH2 0x872 JUMP JUMPDEST DUP4 ADD DUP3 PUSH2 0x959 JUMP JUMPDEST POP POP JUMPDEST POP POP POP JUMP JUMPDEST PUSH1 0x0 DUP3 DUP3 SHR SWAP1 POP SWAP3 SWAP2 POP POP JUMP JUMPDEST PUSH1 0x0 PUSH2 0x9E0 PUSH1 0x0 NOT DUP5 PUSH1 0x8 MUL PUSH2 0x9C2 JUMP JUMPDEST NOT DUP1 DUP4 AND SWAP2 POP POP SWAP3 SWAP2 POP POP JUMP JUMPDEST PUSH1 0x0 PUSH2 0x9F9 DUP4 DUP4 PUSH2 0x9CF JUMP JUMPDEST SWAP2 POP DUP3 PUSH1 0x2 MUL DUP3 OR SWAP1 POP SWAP3 SWAP2 POP POP JUMP JUMPDEST PUSH2 0xA12 DUP3 PUSH2 0x4B2 JUMP JUMPDEST PUSH8 0xFFFFFFFFFFFFFFFF DUP2 GT ISZERO PUSH2 0xA2B JUMPI PUSH2 0xA2A PUSH2 0x58B JUMP JUMPDEST JUMPDEST PUSH2 0xA35 DUP3 SLOAD PUSH2 0x79D JUMP JUMPDEST PUSH2 0xA40 DUP3 DUP3 DUP6 PUSH2 0x97C JUMP JUMPDEST PUSH1 0x0 PUSH1 0x20 SWAP1 POP PUSH1 0x1F DUP4 GT PUSH1 0x1 DUP2 EQ PUSH2 0xA73 JUMPI PUSH1 0x0 DUP5 ISZERO PUSH2 0xA61 JUMPI DUP3 DUP8 ADD MLOAD SWAP1 POP JUMPDEST PUSH2 0xA6B DUP6 DUP3 PUSH2 0x9ED JUMP JUMPDEST DUP7 SSTORE POP PUSH2 0xAD3 JUMP JUMPDEST PUSH1 0x1F NOT DUP5 AND PUSH2 0xA81 DUP7 PUSH2 0x85D JUMP JUMPDEST PUSH1 0x0 JUMPDEST DUP3 DUP2 LT ISZERO PUSH2 0xAA9 JUMPI DUP5 DUP10 ADD MLOAD DUP3 SSTORE PUSH1 0x1 DUP3 ADD SWAP2 POP PUSH1 0x20 DUP6 ADD SWAP5 POP PUSH1 0x20 DUP2 ADD SWAP1 POP PUSH2 0xA84 JUMP JUMPDEST DUP7 DUP4 LT ISZERO PUSH2 0xAC6 JUMPI DUP5 DUP10 ADD MLOAD PUSH2 0xAC2 PUSH1 0x1F DUP10 AND DUP3 PUSH2 0x9CF JUMP JUMPDEST DUP4 SSTORE POP JUMPDEST PUSH1 0x1 PUSH1 0x2 DUP9 MUL ADD DUP9 SSTORE POP POP POP JUMPDEST POP POP POP POP POP POP JUMP JUMPDEST PUSH1 0x0 DUP2 SLOAD SWAP1 POP PUSH2 0xAEA DUP2 PUSH2 0x79D JUMP JUMPDEST SWAP1 POP SWAP2 SWAP1 POP JUMP JUMPDEST DUP2 DUP2 SUB PUSH2 0xAFF JUMPI POP POP PUSH2 0xBD7 JUMP JUMPDEST PUSH2 0xB08 DUP3 PUSH2 0xADB JUMP JUMPDEST PUSH8 0xFFFFFFFFFFFFFFFF DUP2 GT ISZERO PUSH2 0xB21 JUMPI PUSH2 0xB20 PUSH2 0x58B JUMP JUMPDEST JUMPDEST PUSH2 0xB2B DUP3 SLOAD PUSH2 0x79D JUMP JUMPDEST PUSH2 0xB36 DUP3 DUP3 DUP6 PUSH2 0x97C JUMP JUMPDEST PUSH1 0x0 PUSH1 0x1F DUP4 GT PUSH1 0x1 DUP2 EQ PUSH2 0xB65 JUMPI PUSH1 0x0 DUP5 ISZERO PUSH2 0xB53 JUMPI DUP3 DUP8 ADD SLOAD SWAP1 POP JUMPDEST PUSH2 0xB5D DUP6 DUP3 PUSH2 0x9ED JUMP JUMPDEST DUP7 SSTORE POP PUSH2 0xBD0 JUMP JUMPDEST PUSH1 0x1F NOT DUP5 AND PUSH2 0xB73 DUP8 PUSH2 0x85D JUMP JUMPDEST SWAP7 POP PUSH2 0xB7E DUP7 PUSH2 0x85D JUMP JUMPDEST PUSH1 0x0 JUMPDEST DUP3 DUP2 LT ISZERO PUSH2 0xBA6 JUMPI DUP5 DUP10 ADD SLOAD DUP3 SSTORE PUSH1 0x1 DUP3 ADD SWAP2 POP PUSH1 0x1 DUP6 ADD SWAP5 POP PUSH1 0x20 DUP2 ADD SWAP1 POP PUSH2 0xB81 JUMP JUMPDEST DUP7 DUP4 LT ISZERO PUSH2 0xBC3 JUMPI DUP5 DUP10 ADD SLOAD PUSH2 0xBBF PUSH1 0x1F DUP10 AND DUP3 PUSH2 0x9CF JUMP JUMPDEST DUP4 SSTORE POP JUMPDEST PUSH1 0x1 PUSH1 0x2 DUP9 MUL ADD DUP9 SSTORE POP POP POP JUMPDEST POP POP POP POP POP POP JUMPDEST JUMP INVALID LOG2 PUSH5 0x6970667358 0x22 SLT KECCAK256 0xD8 0x22 0xEE STOP TIMESTAMP JUMP 0xA8 XOR 0xA8 SWAP11 PUSH24 0x94C09983A6A31D45243D78FEBB3E97946C46A9FF9A64736F PUSH13 0x63430008120033000000000000 "
				},
				"gasEstimates": {
					"creation": {
						"codeDepositCost": "617400",
						"executionCost": "651",
						"totalCost": "618051"
					},
					"external": {
						"createMonster(string)": "infinite",
						"getMonster(uint256)": "infinite",
						"updatePower(uint256,uint256)": "infinite"
					}
				},
				"methodIdentifiers": {
					"createMonster(string)": "9b247d4b",
					"getMonster(uint256)": "62fb6fe1",
					"updatePower(uint256,uint256)": "e338ef54"
				}
			},
			"storageLayout": {
				"storage": [
					{
						"astId": 17,
						"contract": "contracts/Struct.sol:ContractMonster",
						"label": "monsters",
						"offset": 0,
						"slot": "0",
						"type": "t_array(t_struct(Monster)13_storage)dyn_storage"
					}
				],
				"types": {
					"t_array(t_struct(Monster)13_storage)dyn_storage": {
						"base": "t_struct(Monster)13_storage",
						"encoding": "dynamic_array",
						"label": "struct ContractMonster.Monster[]",
						"numberOfBytes": "32"
					},
					"t_enum(typeMonster)5": {
						"encoding": "inplace",
						"label": "enum ContractMonster.typeMonster",
						"numberOfBytes": "1"
					},
					"t_string_storage": {
						"encoding": "bytes",
						"label": "string",
						"numberOfBytes": "32"
					},
					"t_struct(Monster)13_storage": {
						"encoding": "inplace",
						"label": "struct ContractMonster.Monster",
						"members": [
							{
								"astId": 7,
								"contract": "contracts/Struct.sol:ContractMonster",
								"label": "name",
								"offset": 0,
								"slot": "0",
								"type": "t_string_storage"
							},
							{
								"astId": 9,
								"contract": "contracts/Struct.sol:ContractMonster",
								"label": "power",
								"offset": 0,
								"slot": "1",
								"type": "t_uint256"
							},
							{
								"astId": 12,
								"contract": "contracts/Struct.sol:ContractMonster",
								"label": "type1",
								"offset": 0,
								"slot": "2",
								"type": "t_enum(typeMonster)5"
							}
						],
						"numberOfBytes": "96"
					},
					"t_uint256": {
						"encoding": "inplace",
						"label": "uint256",
						"numberOfBytes": "32"
					}
				}
			},
			"userdoc": {
				"kind": "user",
				"methods": {},
				"version": 1
			}
		}
	}
}